:10000000F8FF0020110400004F4900004F49000094
:100010004F4900004F4900004F4900004F49000080
:100020004F4900004F4900004F4900004F49000070
:100030004F4900004F4900004F4900004F49000060
:100040004F4900004F4900004F4900004F49000050
:10040000FFFFFFFFFFFFFFFFFFFFFFFFFEFFFFFFFD
:1004100062B607F005FEFEE71A0000001C000000AF
:1004200000000000000000005E0000001A00000054
:100430000000000000000000A10000001C000000FF
:1004400000000000000000003D00000089000000E6
:100450000000000000000000400000003E0000001E
:100460000000000000000000190000005E00000015
:1004700000000000000000005D0000005D000000C2
:100480000000000000000000A10000005E0000006D
:100490000000000000000000840000008700000051
:1004A0000000000000000000870000003F00000086
:1004B00000000000000000001A0000009F00000083
:1004C00000000000000000005D000000A10000002E
:1004D0000000000000000000A0000000A0000000DC
:1004E0000400000002000000020000000200000002
:1004F00000000000040000000200000000000000F6
:100500000400000004000000F628B4C0713DA4C13E
:1005100001000000F4010000FFEE000000B0034005
:1005200000B00B40000000000000000000000000D0
:1005300000000000000000000000000000000000BB
:1005400000004E6F6E4D61736B61626C6500000060
:1005500000486172644661756C7400000000000020
:100560004D656D4D616E6167656D656E740000422D
:1005700075734661756C74000000000000005573CF
:100580006167654661756C74000000000000000042
:10059000000000000000000000000000000000005B
:1005A000000000000000000000000000000000004B
:1005B000000000000000000000000000000000003B
:1005C000000000000000000000535643616C6C0006
:1005D000000000000000000044656275674D6F6E0A
:1005E00069746F720000000000000000000000004D
:1005F00000000000000050656E64535600000000CB
:1006000000000000005379735469636B0000000020
:1006100000000000444D41300000000000000000D8
:10062000000000444D4131000000000000000000C7
:100630000000444D413200000000000000000000B6
:1006400000444D41330000000000000000000000A5
:10065000444D413400000000000000000000004450
:100660004D41350000000000000000000000444D36
:1006700041360000000000000000000000444D4131
:10068000370000000000000000000000444D413829
:100690000000000000000000000000444D4139004F
:1006A00000000000000000000000444D4131300017
:1006B000000000000000000000444D413131000006
:1006C0000000000000000000444D413132000000F5
:1006D00000000000000000444D41313300000000E4
:1006E000000000000000444D4131340000000000D3
:1006F0000000000000444D413135000000000000C2
:1007000000000000444D415F4572726F72000000AE
:100710000000004D434D00000000000000000000FC
:1007200000004654464C000000000000000000009D
:1007300000526561645F436F6C6C6973696F6E0032
:100740004C56445F4C565700000000000000004C1F
:100750004C5700000000000000000000000057613E
:10076000746368646F6700000000000000524E4729
:10077000000000000000000000000000493243308B
:10078000000000000000000000000049324331007A
:10079000000000000000000000005350493000003D
:1007A000000000000000000000535049310000002C
:1007B000000000000000000053504932000000001B
:1007C0000000000000000043414E305F4F525F4D7B
:1007D000425F6275660043414E305F4275735F4F02
:1007E000666600000043414E305F4572726F7200D2
:1007F0000000000043414E305F54785F5761726ED5
:10080000696E6743414E305F52785F5761726E691F
:100810006E6743414E305F57616B655F55700000F6
:100820000052657365727665643531000000000022
:1008300052657365727665643532000000000043CE
:10084000414E315F4F525F4D425F627566004341DA
:100850004E315F4275735F4F666600000043414E44
:10086000315F4572726F72000000000043414E31EB
:100870005F54785F5761726E696E6743414E315FB6
:1008800052785F5761726E696E6743414E315F57B0
:10089000616B655F55700000005265736572766527
:1008A0006435390000000000526573657276656436
:1008B0003630000000000055415254305F52585FFE
:1008C00054580000000055415254305F45525200C8
:1008D000000000000055415254315F52585F545897
:1008E0000000000055415254315F45525200000053
:1008F00000000055415254325F52585F5458000076
:10090000000055415254325F455252000000000031
:100910000055415254335F52585F54580000000054
:1009200055415254335F45525200000000000055BB
:10093000415254345F52585F5458000000005541F2
:100940005254345F4552520000000000005541529D
:1009500054355F52585F54580000000055415254BE
:10096000355F455252000000000000414443300012
:10097000000000000000000000004144433100007E
:10098000000000000000000000434D503000000057
:100990000000000000000000434D50310000000046
:1009A00000000000000000434D5032000000000035
:1009B00000000000000046544D3000000000000020
:1009C000000000000046544D31000000000000000F
:1009D0000000000046544D320000000000000000FE
:1009E000000000434D540000000000000000000023
:1009F000000052544300000000000000000000000E
:100A0000005265736572766564383300000000003B
:100A10005049543000000000000000000000005069
:100A2000495431000000000000000000000050495F
:100A30005432000000000000000000000050495443
:100A4000330000000000000000000000504442306D
:100A5000000000000000000000000055534230007C
:100A600000000000000000000000555342444344D1
:100A7000000000000000000000454E45545F313585
:100A800038385F54696D6572454E45545F547261E4
:100A90006E736D69740000454E45545F5265636521
:100AA000697665000000454E45545F4572726F726D
:100AB0000000000000493253300000000000000038
:100AC0000000000053444843000000000000000004
:100AD000000000444143300000000000000000001E
:100AE000000044414331000000000000000000000D
:100AF00000545349300000000000000000000000D6
:100B00004D43470000000000000000000000004CC2
:100B10005054696D657200000000000000005265CD
:100B200073657276656431303200000000504F52B8
:100B3000544100000000000000000000504F5254DB
:100B40004200000000000000000000504F525443DB
:100B500000000000000000000000504F525444000C
:100B6000000000000000000000504F5254450000FB
:100B70000000000000000000526573657276656435
:100B8000313038000000005265736572766564315B
:100B9000303900000000526573657276656431314A
:100BA0003000000000526573657276656431313142
:100BB0000000000052657365727665643131320061
:100BC0000000005265736572766564313133000050
:100BD000000052657365727665643131340000003F
:100BE000005265736572766564313135000000002E
:100BF00052657365727665643131360000000052CB
:100C000065736572766564313137000000005265A6
:100C10007365727665643131380000000052657387
:100C20006572766564313139000000000080034050
:100C30000090034000800B4000900B4000F00F40FC
:100C400040F00F4080F00F40C0F00F4000F10F4027
:100C500066000A1D32000701640007106E000406DA
:100C6000780004088200040A8C00040C9600040E2C
:100C7000A0000410AA000412B4000414BE0004165C
:100C8000C8000418D200041ADC00041CE100041D92
:100C9000E600041EEB00041FF4000317FA0003181B
:100CA000130101062C010214000109080090044000
:100CB00000A0044000B0044000C0044000D0044044
:100CC00000A0064000B0064000C0064000D006402C
:100CD00000A00E4000B00E40000000000000000028
:100CE0000000000000000000000000000000000004
:100CF00000000000000000000000000000000000F4
:100D000000000000000000000000000000000000E3
:100D100000000000000000000000000000000000D3
:100D20000000000000000000000000000000008043
:100D3000808080C0C0C0C0E0200000000000000033
:100D400000000000000000000000000000000000A3
:100D50000000000000000000000000000000000093
:100D60000000000000000000000000000000000083
:100D70000000000000000000000000000000000073
:100D80000000000000000000000000000000000063
:100D90000080808080C0C0C0C0E0E0E0E0F0F0F003
:100DA0007878B8B8FCDC7C7CBE9EDEEFEFF7FBFF0A
:100DB000FDFFFE7F1F070100000000000000000093
:100DC0000000000000000000000000000000000023
:100DD0000000000000000000000000000000000013
:100DE0000000000000000000000000000000000003
:100DF0000000000000000000404040E0E0E0F0F0B3
:100E0000F0F0F8F8F8F8FCFCFCFCFEFEFEFF7F7F3B
:100E10003FBF9FDFDFEFEFF7F77B3BBB9DDDEEE6EC
:100E2000F7FBFBFDFCFEFFFFFFFFFFFFFFFF7F3F28
:100E30000F030000000000000000000000000000A0
:100E400000000000000000000000000000000000A2
:100E50000000000000000000000000000000000092
:100E60000000000000000000000000000000000082
:100E70000000000000000000000000000000000171
:100E800001010303030307031BF9F9FDFCFEFE1F29
:100E90000F8FA73773F9FDFCFEFFFFFFFFB3B18D86
:100EA000CB3B1B3D67431FFFFFFF7F1F0701000078
:100EB0000000000000000000000000000000000032
:100EC0000000000000000000000000000000000022
:100ED0000000000000000000000000000000000012
:100EE0000000000000000000000000000000000002
:100EF00000000000000000000000000000000000F2
:100F000000000000000000000000073FFF1F81F00C
:100F10007F3F3F1F0E0600010303070F0F1F1F3FF8
:100F20007E7EFFFFFE7E3F0F0300000000000000FA
:100F300000000000000000000000000000000000B1
:100F400000000000000000000000000000000000A1
:100F50000000000000000000000000000000000091
:100F60000000000000000000000000000000000081
:100F70000000000000000000000000000000000071
:100F80000000000000000000000000000000010060
:100F90000000000000000000000000000000000051
:100FA000000000010100000000000000000000003F
:100FB0000000000000000000000000000000000031
:100FC0000000000000000000000000000000000021
:100FD0000000000000000000000000000000000011
:100FE0000000000000000000000000000000000001
:100FF00000000000000000000000000000000000F1
:1010000000000000000000000000000000000000E0
:1010100000000000000000000000000000000000D0
:1010200000000000000000000000000000000000C0
:1010300000000000000000000000000000000000B0
:1010400000000000000000000000000000000000A0
:101050000000000000000000000000000000000090
:101060000000000000000000000000000000000080
:101070000000000000000000000000000000000070
:101080000000000000000000000000000000000060
:101090000000000000000000000000000000000050
:1010A0000000000000000000000000000000000040
:1010B0000000000000000000000000000000000030
:1010C0000000000000000000000000000000000020
:1010D00000000000000000000000F0409A99993ED6
:1010E00000006442010000009C8600000000000037
:1010F000C53500004C870000E010FF1FED360000F2
:10110000A8860000E010FF1F393800005487000057
:10111000E010FF1FF938000001060800B878000051
:10112000E419FF1F00007A458FC2353F6A6B6E6C71
:10113000676D000034353637020401010C1AFF1FB9
:101140005C1AFF1F0C1AFF1F0C1AFF1F0C1AFF1F3F
:101150006D11FF1F5411FF1F000000000000000070
:10116000000000000000000000000000000000007F
:1011700000000000000000000100000003FC00006F
:101180002DE9F04FA1B08246002016461D4602917F
:101190000B900DF144086FF000490AE016F8011BAE
:1011A0000298D0470028029000F0AF820B98401CB4
:1011B0000B903078010001D10B98A8E22528EDD1E1
:1011C0000020059006900790089009900A9001E091
:1011D00040F0010016F8011F2029F9D023290DD075
:1011E0002B2904D02D2906D030290AD00CE040F05C
:1011F000020080B2EEE740F00400FAE740F0080099
:10120000F7E740F01000F4E72A290ED12968296099
:1012100051F8042B2960002A0D9204D5514240F068
:1012200004000D9180B2761C11E000210D9109E0BF
:101230000D99494505D001EB810302EB430130399B
:101240000D91761C3278A2F130010A29F0D3317861
:101250002E2903D04FF0FF310C911DE016F8011F2D
:101260002A2907D129682960761C51F8042B2960A6
:101270000C9211E000210C9109E00C99494505D030
:1012800001EB810302EB430130390C91761C32787B
:10129000A2F130010A29F0D3ADF838000FF6D820BA
:1012A000317800F077FD08B116F8010B8DF83A009F
:1012B0009DF83A00682802BF31786829622005D07D
:1012C0006C2804BF30786C2803D171208DF83A0067
:1012D000761C11A8049016F8017BB7F1250024D0E4
:1012E0002038022840F2C380133800F0E8800B3821
:1012F00000F05681401E00F02C81401E022840F272
:10130000B680001F00F02581401F00F08180401E44
:1013100000F0D580401E24D0C01E0BD0801E00F0EF
:10132000CE80C01E00F0CB8044E125208DF8440023
:10133000012049E12868286050F8044B2860039494
:101340000C9F002F04D5204600F030FD074606E034
:101350003A460021204600F045FD00B1071B0697E4
:1013600033E129682960002251F8040B296000212B
:10137000CDE9000111A80390DDE900019142049F2D
:1013800008BF90424FF03C0C01D10C9AC2B100F062
:101390000F033033DBB23A2BA8BF2733ACF1010285
:1013A0000009BB54944640EA0170090900229142A9
:1013B00008BF904204D0039A07EB0C039A42E6D38D
:1013C00007EB0C000390CCF13C010C980691814294
:1013D00009DA401A08904FF6EF71BDF8380008405E
:1013E000ADF83800F1E0002840F1EF809DF83800BA
:1013F00000F01400102840F0E8800D98059A801A3B
:10140000089A801A401A0128C0F2DF800890DCE0B8
:101410009DF83A0062281AD0682806D06A280CD0B5
:101420006C281CD0712808D019E02868286050F872
:10143000041B28600B980880C7E02868286050F8D3
:10144000042B28600B98C117C2E90001BDE0286891
:10145000286050F8041B28600B980870B5E02868D5
:10146000286050F8041B28600B980860ADE02868DD
:10147000C01D20F007022A60D2E9000108322A606C
:10148000CDE90001002902D505982D210AE0BDF81B
:101490003800810702D505982B2103E0C00705D548
:1014A0000598202108F80010401C059011A8059906
:1014B000084403903946684600F0E8F985E09DF855
:1014C0003A006C280DD0712818BF6A2809D1286805
:1014D000C01D20F007022A60D2E9000108322A600C
:1014E00005E02968296051F8040B29600021CDE945
:1014F00000019DF83A00682803D1DDE9000180B2BF
:101500000BE0622803D1DDE90001C0B205E07428D8
:1015100018BF7A2804D1DDE900010021CDE90001DE
:101520009DF83800000732D5DDE900230020834212
:1015300008BF82422BD047F02000782827D1059899
:10154000302108F80010401C411C059108F800707B
:101550001DE09DF83A00294600F0DCF8CDE90001D5
:10156000DDE9002300218B4202DA05982D210AE0F3
:10157000BDF83800810702D505982B2103E0C0078C
:1015800005D50598202108F80010401C059011A8E9
:101590000599084403903946684600F0F2F814E0D3
:1015A000012005902868286050F8041B28608DF8F9
:1015B00044100AE025208DF84400012005903800F1
:1015C00003D088F80170022005900D980599401A03
:1015D0000899401A0699401A0999401A0799401A21
:1015E0000A99471A9DF83800400710D42020012F8F
:1015F0008DF840000BDB3C46012310AA694650469B
:1016000000F0A2FB002840F08080641EF4D1DDF8D9
:1016100014B0BBF1000F11AC0CD014F8011B0298F0
:10162000D0470028029070D00B98401CBBF1010BF2
:101630000B90F2D130208DF84000089C012C09DB82
:10164000012310AA6946504600F07EFB00285CD1B9
:10165000641EF5D1DDF818B0039CBBF1000F0CD06F
:1016600014F8011B0298D047002802904DD00B9827
:10167000401CBBF1010B0B90F2D130208DF84000E3
:10168000099C012C09DB012310AA6946504600F091
:101690005BFB002839D1641EF5D103980699DDF86B
:1016A0001CB04418BBF1000F0BD014F8011B0298BA
:1016B000D047029048B30B98401CBBF1010B0B9034
:1016C000F3D130208DF840000A9C012C08DB012367
:1016D00010AA6946504600F037FBB0B9641EF6D137
:1016E0009DF8380040077FF564AD2020012F8DF86C
:1016F0004000FFF65EAD012310AA6946504600F097
:1017000023FB10B97F1EF6D153E54FF0FF3021B017
:10171000BDE8F08F622826D068281DD06A2808D03E
:101720006C2827D0712804D0742823D07A280CD0B4
:1017300020E00868C01D20F007000860D0E9002301
:10174000083008601946104670470A680A6052F867
:10175000040B0A60002170470A680A6052F8040B03
:101760000A6000B20BE00A680A6052F8040B0A60D3
:1017700040B204E00A680A6052F8040B0A60C1171C
:1017800070472DE9F343054608462F696F2808BFC7
:10179000082405D041F02001782914BF0A24102420
:1017A0003C26D5E90023642818BF6928904699464D
:1017B00006D100218B4203DAD8F1000869EB490910
:1017C0000020814508BF80450CD1286B50B9082CFA
:1017D00038D195F83800000734D530203B2687F8FB
:1017E0003B002FE0701E00900646404649462246C8
:1017F000E31700F023FB02F13000C0B23A2803DB0C
:101800009DF8041051390818B855494640462246FB
:10181000E31700F013FB804689460020814508BF8E
:10182000804503D0E868B9198842DBD3082C09D178
:1018300095F83800000705D5B85D302802D0761E2F
:101840003020B855B919E960C6F13C00296BA86190
:10185000884208DA081A28624FF6EF71288F08408C
:101860002887BDE8F38300290ED595F8381001F0DC
:101870001401102908D1696B6A69891A2A6A891AC0
:101880000E1A012EA8BF2E62BDE8F3832DE9F34F97
:101890008BB0D0E90089006B002801AF48BF06205B
:1018A00005D404BF41F02000672802D101200B9924
:1018B000086340F2FF720B984168C1F30A509042EE
:1018C00020D1080302BF0B98006800280AD10B99A9
:1018D000032088619DF8300061381A2858D30FF230
:1018E000AC4109E00B99032088619DF83000613814
:1018F0001A284AD30FF28C410B98C068032200F0DB
:1019000015FBFFE0012807DA0B9800F04AFB0128DD
:1019100002DB00230026ECE00B9ADFF854B152689A
:1019200040F2FE3161F31E520B994A6040F2FE31E3
:10193000401A00B247F2975148434E4990FBF1F6E6
:10194000404649460022002300F04EFB36B238BF25
:1019500089F00049C6F10707012F92461BDBF80703
:1019600007D552465B464046494600F055FB804647
:1019700089465046594652465B467F1000F04CFB64
:10198000002F82468B46EAD126E00FF2F431B3E70E
:101990000FF2F431B0E77F420024374D12E0F80730
:1019A00007D552465B462046294600F035FB0446E3
:1019B0000D465046594652465B4600F02DFB7F10BF
:1019C00082468B46002FEAD14046494622462B46A6
:1019D00000F0F4FB804689469DF830000B99DFF853
:1019E0009CB0096B40F02005662D0CBF06F10A0083
:1019F00006204718142FA8BF132730208DF80400A5
:101A00000DF10504012F3BDB4046494600F018FD6F
:101A1000014604F1080204234FF00A0CB1FBFCFC60
:101A20000CEB8C04A1EB4401303102F8011C0A21BB
:101A3000BCFBF1FE0EEB8E04ACEB440430345B1EB9
:101A4000714602F8024DE7D1083F012F02F1080468
:101A5000D8DB00F015FD02460B464046494600F033
:101A60001DFD00225B4600F0D7FA80468946CBE791
:101A700000002440A08601000000F03F84D7974179
:101A80000DF10500201A0DF1050702E0401E761E3B
:101A90007F1C39783029F9D0662D08BF711C03D01E
:101AA000652D0CBF012100210B9A126B8B181BB204
:101AB0009842B8BF03461BB219001AD4814204DA17
:101AC000785C3528A8BF392000DA30207A18521EF9
:101AD00000E05B1E12F80149491E8442F9D0392802
:101AE00002D1785C401C7854002902D57F1E5B1C13
:101AF000761C36B29DF830100B9800961BB23A4611
:101B000000F003F80DB0BDE8F08F2DE9F04786B086
:101B100006468A4690461D4600F09DFD012D406A0E
:101B2000376B90F8009002DA01250FF264284AF032
:101B30002000BDF93840662808BF641C13D0672810
:101B400040F08A8014F1040F75DBBC4273DA96F81A
:101B50003800641C000702D4BD42B8BF2F4624B22F
:101B60003F1B48BF002724B2F068B169012C23DA7B
:101B70004A1C30234354012F03DA96F8380000073B
:101B800003D5F06800F80290521CE742B8BF7C42CF
:101B900024B260427062E719AF42B261B8BF3D46FD
:101BA000F068B3692DB2F5612A464146184400F049
:101BB000BDF9781BB062B0E022469542084416DABF
:101BC0002A46414600F0B2F9B1696918601B012F3D
:101BD000B161706203DA96F83800000705D5F06845
:101BE00000F80190F069401CF061B76295E0414651
:101BF00000F09CF9B06920182D1B012F03DA96F82C
:101C00003810090703D5F16801F80090401CB06155
:101C10002DB2AF42B8BF3D46F068B3692DB22A4637
:101C200008EB0401184400F081F9B0692818B0618C
:101C3000781B706271E0BD4204DA96F8381009072B
:101C400058BF2F467F1E48BF0027BAF1670F0CBF51
:101C50004FF0650A4FF0450AB169F368481CB0615E
:101C6000012F18F8012B5A5403DA96F83810090797
:101C700017D5F168431CB36101F80090012F10DB08
:101C80006D1E2DB2AF42B8BF3D46F0682DB22A4658
:101C90004146184400F04AF9B0692818B061781B31
:101CA0007062F068B1690144200081F800A004D49A
:101CB0002B20487001F1020804E02D224A7001F146
:101CC00002086442002502AF08E00A22684600F0DC
:101CD000DBFC019807F8010B6D1C009C21B2012967
:101CE000F3DA022D06DA4AF02000652804BF30201E
:101CF00008F8010B4DB9302008F8010B07E06D1E04
:101D000002A8405D303008F8010B012DF7DAF068C9
:101D1000B1690844A8EB0000F06196F8380000F0C3
:101D2000140010280DD17069B1690818716A08187B
:101D3000F1690818B16A0818716B8842BCBF081AAB
:101D4000306206B0BDE8F087F8B504460D46164689
:101D50001F46002077B116F8011BA868A047A860AD
:101D600030B1E86A401CE86200207F1EF3D1F2BD6A
:101D70004FF0FF30F2BD0000686A6C747A4C0000CE
:101D80006E616E004E414E00696E6600494E46001F
:101D90003000FC030278C9B28A421AB11CBF10F8A5
:101DA000012FF9E718BF00207047000000F1010380
:101DB000810704D010F8011B89B18107FAD10268AC
:101DC000B2F10131914311F0803F04BF50F8042F6C
:101DD000F6E710F8011B11B110F8011BFBE7C01A60
:101DE00070470000C9B2830706D0521E22D310F8F4
:101DF000013B9942F7D11FE0083A13D302F10402E4
:101E000041EA012141EA014150F8043B121F21BF80
:101E10004B40A3F1013C2CEA030C1CF0803FF3D0B3
:101E2000C9B2001F083210F8013B521E28BF91EAC8
:101E3000030FF8D818BF0120401E70471B4213D172
:101E4000094236D12AB18446B0FBF2F002FB10C23F
:101E5000704700F021BCFCD30022002370470B0028
:101E60000200002100207047904271EB030CF6D372
:101E700070B5B1FA81F4B3FA83F52C1BA340C4F119
:101E8000200532FA05F63343A2405FF00046E640F3
:101E900002E05B085FEA3202841A71EB030524BF9B
:101EA000204629467641F4D302000B003000002181
:101EB00070BD012ACFD970B5140C20D0B1FA81F4CD
:101EC000B2FA82F5C4F120046419B4F12006D6D325
:101ED000B2405FF00044F440002502E052085FEA9F
:101EE0003303C61A71EB020E24BF304671466441BB
:101EF0006D41F3D302000B002000290070BD0C4699
:101F0000B1FBF2F102FB11452D0445EA1045B5FB8A
:101F1000F2F402FB145580B240EA0545B5FBF2F03D
:101F200002FB105240EA044070BD000062B38B0710
:101F300008D0521E11F8013B00F8013B00F024804C
:101F40008B07F6D1830740F0208000BF103A07D3FB
:101F500030B4B1E83810103AA0E83810F9D230BCEB
:101F6000530724BFB1E80810A0E8081044BF51F897
:101F7000043B40F8043BD20724BF31F8022B20F881
:101F8000022B44BF0B7803707047083A07D3B1E8BF
:101F90000810083A40F8043B40F804CBF7D2530746
:101FA000E4E730B4436803F000420121C3F31303B4
:101FB0004360002B04BF0368002B08D10DE00368C9
:101FC000DD0F45EA440444605B000360491E446839
:101FD000E302F4D5C4F31303436043681A43426039
:101FE000084630BC704700004FF4001C1CEB410F4A
:101FF00094BF1CEB430F09E041EA030C50EA4C0C80
:1020000052EA0C0C03D2994208BF9042704714BFA9
:102010008B42824270470000B0B581EA030C0CF09D
:10202000004C40F2FF7515EA11541DBF15EA135715
:10203000AC42AF4239E0E41923EA455343F480133C
:10204000C90241F0004141EA505EC7021100A7FBFE
:10205000020200284FF00000EEFB01204FF00001CB
:10206000E3FB072118BF42F001024018002149415B
:10207000E3FB0E01A4F580640F0302D2520040413D
:10208000494154F101046CDD470872F1004250F1FE
:10209000000051EB0451A1F580115CBF41EA0C0135
:1020A000B0BD4CEA05510020B0BD05EA1357AC4263
:1020B00014BFAF4241E050EA410E1CBF52EA430E4A
:1020C00002E061460020B0BD24423C441BD15FEADF
:1020D000070EF6D0090302BF01460020AEF1140E30
:1020E000B1FA81F7AEEB070401FA07FE0C37C7F12E
:1020F000200100FA07F7C8404EEA000E23EA4553D4
:1021000043F48013A2E733F00043B3FA83F704BF2C
:10211000B2FA82FE77440B3FE41BB7F1200E2FBFCB
:1021200002FA0EF3BB40C7F1200E22FA0EFE38BFB2
:1021300043EA0E03BA40641C82E750EA410E14BF22
:1021400052EA430E6FF000014FF4001717EB430FF4
:102150008ABF194617EB410FB5E74CEA055100203D
:10216000B0BDD4F10104B4F120070FDAC4F12007A7
:10217000520828BF42F0010210FA07F501FA07F7EA
:10218000E1BF2A43E0403843E1400FE0352C98DCC2
:10219000C7F1200452EA400220FA07F218BF42F0C9
:1021A000010231FA07F0A1400A43002172F1004216
:1021B00050F1000051EB0C01B0BD00002DE9F041E1
:1021C00040F2FF7581EA030C0CF0004C15EA115443
:1021D0001DBF15EA1357AC42AF42E9E0BC41C1F361
:1021E0001301C3F31303801A994143F4801304D2FB
:1021F000641E4000494180185941C90241EA5051CA
:10220000B1FBF3F603FB1611A2FB0675D7EBC0205A
:10221000A94102D2761E80185941C90241EA5051A3
:10222000B1FBF3FE03FB1E11A2FB0E75D7EBC02022
:10223000A94103D2AEF1010E80185941890241EA49
:102240009051760546EA8E2EB1FBF3F603FB16118C
:10225000A2FB0675D7EB8020A94102D2761E80181A
:102260005941C90241EA50514EEA060EB1FBF3F65C
:1022700003FB1611A2FB0675D7EBC020A94102D2C1
:10228000761E80185941C90241EA5051B1FBF3F75B
:1022900003FB1711A2FB0735D3EBC020A94167F15F
:1022A00000070CBF004247F0010766F3D5274FEA4D
:1022B0001E31B80814F5806414DDBD0775F10042C5
:1022C00050EB0E5051EB045111F5801F5CBF41EAF9
:1022D0000C01BDE8F0814CF07F6141F0E04100204D
:1022E000BDE8F081BD076D0840EA0E5041F4801151
:1022F000D4F10104B4F120060ADAC4F12006020088
:10230000E04001FA06F3E1401843B24015430EE005
:10231000342C14DCC6F1200445EA40056D0820FA8F
:1023200006F2154321FA06F0A1400D43002175F194
:10233000004250F1000051EB0C01BDE8F08100209B
:102340005FEA0C01BDE8F081CFB992185B41B3FAA6
:1023500083F704BFB2FA82F6BF190B3FB7F120062C
:102360002FBF02FA06F3BB40C7F1200622FA06F699
:1023700038BF3343BA401CB1E419641E2FE77F42D3
:1023800031F00041B1FA81F404BFB0FA80F6A4192B
:102390000B3CB4F120062FBF00FA06F1A140C4F1B6
:1023A000200620FA06F638BF3143A0403C1B16E752
:1023B000AC421ABF05EA1357AF4214E050EA410697
:1023C0001CBF52EA4306BFE750EA41073046614668
:1023D0001CBF41EA0551BDE8F08152EA430C08BF39
:1023E000C143BDE8F08100204FF4001616EB410F09
:1023F00098BF16EB430F08BF16EB410F24BFC14334
:1024000005E016EB430F0CBF61464CEA0551BDE8F1
:10241000F0810000F446400D40EAC120490006D298
:1024200000F014F8004248BF6FF00040604700F031
:102430000DF84FF0004188428CBF0846404260478B
:10244000400D40EAC120490080F00D8040F000407E
:10245000490DA1F58061491C05D4D1F11F0154BF7C
:10246000C840C01770474FF000007047010040F1AE
:102470000980F446404200F005F851F00041604701
:10248000010000BF09D0B0FA80F18840C91CC1F535
:102490008461090501EBD02140057047F0B44FF08D
:1024A000004591EA030F44BF6B4000F001B900BF43
:1024B000841A71EB030604D26E40001BB14112195D
:1024C00073414FF4001C1CEB410F34BF7CEB4306FF
:1024D00084E00C0DA4EB1356362E7DDC012E43DC7C
:1024E00045EAC32343EA525312BFD20292025B0869
:1024F000240545EAC12141EA5051D2EBC02099415F
:1025000025D407D1B0FA80F610FA06F164D0002085
:10251000203608E0B1FA81F6B140C6F1200220FA77
:1025200002F21143B0404FEAF474B4EB465434F075
:1025300001064FEA74040AD8D6F50016760D04F0A9
:102540000044F04061FA06F25040F1404840C00AB1
:1025500040EA415021F0004128BF5FEA500550F1A8
:10256000000044EBD12137E045EAC323DB0A45EA0A
:10257000C121C90AB6F120050EDD42EA0242120C61
:10258000C5F1200603FA06F6EB4042EA06056D4265
:10259000984161F100010DE062FA06F5F240554004
:1025A00063FA06FC82EA0C02F3405A406D42904105
:1025B00061EB030111F4801F05D1641E620502D096
:1025C0006D004041494121F48011430875F10043F9
:1025D00050F1000041EB0451F0BC70471CEB410F7F
:1025E00015D223F0004352EA43060BD04FEA4C0CBD
:1025F000BCEB410F04D80C0D661E342EB7DDEBE7A3
:10260000801A994150EA410608BF0021E4E708BF5B
:102610001CEB430F28BF6FF00001DDE780B51348C6
:1026200000F0B0F80FF24C020FF244010160426278
:1026300041600FF24402826381600FF24402C16084
:102640000161416181618162C16201634163C26371
:102650000164416401BD10B5044800F093F80446DC
:10266000206808B9FFF7DAFF204610BD681AFF1F7F
:10267000000000002E00000066616C736500000021
:10268000747275650000000091FBF2F303FB1211F8
:10269000C0E900317047000070470000F0B44FF00F
:1026A000004591EA030C44BF6B40FFF701BF00BF38
:1026B000841A71EB030603D2001BB1411219734156
:1026C0004FF4001C1CEB410F34BF7CEB430443E090
:1026D0000C0DA4EB1356352E50DC45EAC323DB0A60
:1026E00045EAC121C912B6F120050DDD63FA05F6F0
:1026F000EB4086EA0305124218BF45F00105C018F9
:1027000051F100010CD213E062FA06F5F240554097
:10271000F3415A40B340F3405A408018594107D31F
:1027200049085FEA30005FEA350528BF45F001053A
:1027300001F58011420875F1004250F1000041EBB3
:102740000451F0BC4FF4001C1CEB410F38BF704724
:102750000020090D090570471CEB410F10D252EA09
:1027600043060BD0BCEB410F05D80C0DAB43661EE6
:10277000342EB5DD02E0AB4380185941F0BC704700
:10278000F0BC7047704700000100C9B2DFF8840A4E
:1027900000684078081A00280DD4DFF8780A00682D
:1027A000C078C9B2DFF86C2A126852788A1A90424F
:1027B00001DB012000E000207047DFF8581A0968AB
:1027C0008978C0B2081ADFF84C1A096849784018AD
:1027D000C00070472DE9F84F2DED028B84B0040046
:1027E0000D001600002700208DF808005FF0000A99
:1027F0005FF0000B5FF000089FEDAD8B5FF000090C
:1028000020002900C0B2C9B2884205D28DF8084024
:102810002C009DF808000500F6B2112E01DB1020F7
:102820000600DFF8F00900688470601BDFF8E41927
:102830000968C870DFF8DC090068C0783100C9B2E7
:10284000884204D3701EDFF8CC190968C87001F003
:1028500034F982465FFA8AFABAF1500F29D1DFF8CB
:10286000B4090068007800280ED0DFF8AC090078C1
:10287000002809D1DFF89C0900680078401EDFF8C5
:102880009419096808704DE0DFF8880900684078FD
:10289000002847D0DFF880090078002842D1DFF80F
:1028A000740900684078401EDFF8681909684870AC
:1028B00038E05FFA8AFABAF1200F33D1DFF8540911
:1028C00000680078DFF84C190968C97888420ED290
:1028D000DFF844090078002809D1DFF838090068DA
:1028E0000078401CDFF82C19096808701AE0DFF83E
:1028F000240900684078F6B2DFF818190968C97829
:10290000711A491E88420DDADFF80C090078002898
:1029100008D1DFF8000900684078401CDFF8F4189F
:1029200009684870DFF8EC0800684078DFF8E418C0
:102930000968097808188046E4B2E000DFF8D41886
:1029400009684860EDB2E800DFF8C81809688860D7
:10295000DFF8C00800684068DFF8B818096809782F
:10296000C900401A83468620009096A301225FFA90
:102970008BFB5946002001F0FBFCE4B2062C11D081
:1029800002200090DFF88C080068406810F108030E
:102990007F22DFF880080068406810F108010020FD
:1029A00001F040FDE4B2002C0FD002200090DFF8CF
:1029B000640800688068431E7F22DFF858080068BA
:1029C0008068411E002001F02DFDDFF848080068F6
:1029D0004068DFF8401809688968401A0830FFF736
:1029E0004FFDCDE90001F6B23000FFF749FD0200CE
:1029F0000B00DDE90001FFF7E1FB41EC180BDFF80C
:102A0000140800684068C01DFFF73AFDCDE90001D9
:102A10005FFA88F818F10100FFF728FD53EC182B36
:102A2000FFF7FAFA02000B00DDE90001FFF736FDBF
:102A3000FFF706FD8146042000904846FFF720FD81
:102A400053EC182BFFF72AFEFFF7FAFC03007F2256
:102A500049467C2001F076FD01200090DFF8B407A4
:102A600000684068C31D7F22DFF8A80700688168FE
:102A70007C2001F067FD0020070030003900C0B263
:102A8000C9B288420ED340463900C0B2C9B28842AA
:102A900001D1012000E00020DFF88017FFB2C85507
:102AA0007F1CEAE704B0BDEC028BBDE8F18F0000AB
:102AB0000000000000000000F8B504000D00002632
:102AC0000027DFF85407007880074AD4E4B2102CBE
:102AD00047DA2000C0B2FFF757FE012841D120009D
:102AE000C0B2FFF76AFE0600DFF83007E4B2005D0F
:102AF000012812D100F0E1FF0700FFB2402F0CD1F6
:102B0000DFF81C0705600020DFF808170968087067
:102B10000020DFF8001709684870286800902AA391
:102B200001223100062001F023FC8720009025A31C
:102B300001223100732001F01BFCDFF8D806006889
:102B40004078DFF8D016096809780818E4B2A04286
:102B500007D1842000901BA3012238217A2001F0A4
:102B600007FCF1BD70B50400002564B2002C01D44F
:102B7000260001E064B266429FED140B00200500C0
:102B80002800310049B200B209B2884218DA64B2B2
:102B9000002C09D453EC102B0020DFF88816FFF727
:102BA0003BFA41EC100B09E053EC102BDFF87806F0
:102BB000DFF87816FFF730FA41EC100B6D1CDFE7F9
:102BC00070BD0000256300002573000000000000B8
:102BD0000000F03F2DE9FF4F81B02DED088B86B04E
:102BE000B0EE409AF0EE609AB0EE418AF0EE618A63
:102BF00000245FF0000B9FED1BBB5FF0000A5FF04D
:102C000000095FF00008002500260027DFF808060D
:102C10000078800700F1768251EC190B53EC182BE9
:102C2000FFF7E2F90BD2B0EE49AAF0EE69AAB0EED6
:102C3000489AF0EE689AB0EE4A8AF0EE6A8A9DF8F9
:102C40003C00102880F25E829DF8440000280DD0E0
:102C500001280ED003280FD0042810D0052811D049
:102C600013E000BF00000000000000001298824640
:102C70000DE0129881460AE01298050007E01298CC
:102C8000060004E01298070001E0129880469DF8C3
:102C90003C00FFF779FD012840F034829DF83C00AC
:102CA000FFF78BFD0400DFF874059DF83C10405CD5
:102CB000012840F0AA8100F000FF83465FFA8BFBF9
:102CC000BBF1400F07D1DFF85005007890F001000C
:102CD000DFF844150870DFF840050078C00740F1C0
:102CE0009481DFF84C0590F90000FFF73BFFB0EE50
:102CF00040BAF0EE60BA5FFA8BFBBBF1500F40F0C8
:102D0000A7809DF84400002808D0012821D003287E
:102D10003AD0042850D0052869D07EE09AF9000006
:102D2000FFF7A4FB53EC1B2BFFF7B8FC02000B00D2
:102D300051EC190B01F074FC0AD89AF800000090CD
:102D400051EC1B0BFFF766FB009940188AF8000056
:102D50005BE199F80000FFF793FB53EC1B2BFFF7A7
:102D60009DFC02000B0051EC190B01F059FC0AD834
:102D700099F80000009051EC1B0BFFF74BFB0099FA
:102D8000401889F8000040E12868FFF76FFB53EC1A
:102D90001B2BFFF783FC02000B0051EC190B01F019
:102DA0003FFC08D82868009051EC1B0BFFF732FB62
:102DB00000994018286028E1306801F049FC53EC84
:102DC0001B2BFFF76BFC02000B0051EC190B01F001
:102DD00027FC0BD851EC1B0B01F062FC00EE100A33
:102DE000D6ED000A30EE200A86ED000A0DE1D7E9A3
:102DF000002351EC1B0BFFF751FC02000B0051ECC0
:102E0000190B01F00DFC07D8D7E9002351EC1B0B7F
:102E1000FFF744FCC7E90001F7E0B8F90000FFF74D
:102E200025FB53EC1B2BFFF739FC02000B0051EC88
:102E3000190B01F0F5FB0AD8B8F80000009051EC2E
:102E40001B0BFFF7E7FA00994018A8F80000DCE038
:102E50005FFA8BFBBBF1200F40F09B809DF8440094
:102E6000002808D001281FD0032836D004284AD0D3
:102E7000052861D074E09AF90000FFF7F7FA53ECE7
:102E80001B2BFFF70BFB53EC182B01F0C9FB0AD8E7
:102E90009AF80000009051EC1B0BFFF7BBFA009969
:102EA000081A8AF80000B0E099F80000FFF7E8FA85
:102EB00053EC1B2BFFF7F2FA53EC182B01F0B0FB8D
:102EC0000AD899F80000009051EC1B0BFFF7A2FA0A
:102ED0000099081A89F8000097E02868FFF7C6FAF9
:102EE00053EC1B2BFFF7DAFA53EC182B01F098FB8D
:102EF00008D82868009051EC1B0BFFF78BFA00995B
:102F0000081A286081E0306801F0A2FB53EC1B2B0B
:102F1000FFF7C4FA53EC182B01F082FB0BD851ECED
:102F20001B0B01F0BDFB00EE100AD6ED000A30EEDF
:102F3000C00A86ED000A68E0D7E9000153EC1B2BBC
:102F4000FFF7ACFA53EC182B01F06AFB07D8D7E96E
:102F5000000153EC1B2BFFF7A1FAC7E9000154E075
:102F6000B8F90000FFF782FA53EC1B2BFFF796FA33
:102F700053EC182B01F054FB0AD8B8F8000000906D
:102F800051EC1B0BFFF746FA0099081AA8F800004D
:102F90003BE05FFA8BFBBBF1300F0DD1DFF8900205
:102FA00090F90000042830DADFF884020078401C31
:102FB000DFF87C12087028E05FFA8BFBBBF1100F82
:102FC00023D19DF84400042803D09DF8440005282F
:102FD0000ED1DFF85C0290F9000010F1020F14DB53
:102FE000DFF84C020078401EDFF8441208700CE055
:102FF000DFF83C0290F90000012806DBDFF8300220
:103000000078401EDFF8281208709DF84400002860
:1030100008D0012810D0032818D004281FD0052874
:1030200029D033E09AF90000009075A30122210015
:10303000442001F09DF932E099F80000009070A35F
:1030400001222100442001F093F928E02868009033
:103050006BA301222100442001F08AF91FE03068AF
:1030600001F0F6FACDE9000166A301222100442017
:1030700001F07EF913E097ED000B8DED000B61A3DD
:1030800001222100442001F073F908E0B8F90000A2
:1030900000905BA301222100442001F069F95E4801
:1030A0000078C00713D55D489DF83C10405C0128AE
:1030B0000DD1832004908DED02BB82200090DFF8BB
:1030C0007431FE222100002001F052F907E010982F
:1030D00000904DA301222100062001F049F94D483E
:1030E000006840784B490968097808189DF83C1039
:1030F000884207D18420009044A3012238217A20FD
:1031000001F036F906B0BDEC088B05B0BDE8F08FD4
:103110000CB4F8B504000D000027DFF81C0100789E
:10312000800716D4E4B2102C13DA2000C0B2FFF7E7
:103130002BFB01280DD12000C0B2FFF73EFB07009A
:1031400006A8060000962B0001223900062000F098
:1031500027FEF1BC5DF80CFB2DE9F84304000D00DF
:10316000160000275FF000085FF000092A48007889
:10317000800743D4E4B2102C40DA2000C0B2FFF73D
:1031800003FB01283AD12000C0B2FFF716FB07006D
:103190002248E4B2005D012809D100F08EFC80468F
:1031A0005FFA88F8B8F1400F01D1012081460095FF
:1031B00015A301223900062001F0DAF814A3012238
:1031C0003900442001F0D4F85FFA89F9B9F1010F10
:1031D00002D100208146B0470E48006840780D4972
:1031E000096809780818E4B2A04207D18420009049
:1031F00006A3012238217A2001F0BAF8BDE8F18354
:10320000256400002566000025730000256300008A
:103210002D3E00001811FF1F641AFF1FF019FF1F39
:10322000D819FF1F000024409A9999999999B93F9C
:10323000651AFF1FC4870000641AFF1F80B5DFF8FE
:10324000F408DFF8F41809680160DFF8E808DFF82F
:10325000EC1809684160DFF8DC08DFF8E418096859
:103260008160DFF8D008DFF8DC180968C160DFF89A
:10327000C408DFF8D41809680161DFF8B808DFF87E
:10328000CC1809684161DFF8AC08DFF8C418096898
:103290008161DFF8A008DFF8BC180968C161DFF8B8
:1032A000600790ED000AB8EEC00ADFF8880880EDEC
:1032B000080ADFF8E40790ED000AB8EEC00ADFF86C
:1032C000740880ED090ADFF86C08DFF88C180969CA
:1032D0008162DFF86008DFF880184969C162DFF8B1
:1032E0005408DFF8741889690163DFF84808DFF8CB
:1032F0006C1809694163DFF83C08DFF86018496918
:103300008163DFF83008DFF854188969C163DFF89A
:10331000500890ED000AB8EEC00ADFF8180880EDFA
:10332000100ADFF8400890ED000AB8EEC00ADFF896
:10333000040880ED110ADFF8300890ED000AB8EEBD
:10334000C00ADFF8F00780ED120ADFF81C0890EDE4
:10335000010AB8EEC00ADFF8DC0780ED130ADFF8D7
:10336000080890ED020AB8EEC00ADFF8C80780ED41
:10337000140ADFF8F40790ED030AB8EEC00ADFF88C
:10338000B40780ED150ADFF8E00790ED040AB8EE07
:10339000C00ADFF8A00780ED160ADFF8CC0790ED31
:1033A000050AB8EEC00ADFF88C0780ED170ADFF8CF
:1033B000B80790ED060AB8EEC00ADFF8780780ED8E
:1033C000180ADFF8A40790ED070AB8EEC00ADFF884
:1033D000640780ED190ADFF8900790ED080AB8EE4F
:1033E000C00ADFF8500780ED1A0ADFF87C0790ED7D
:1033F000090AB8EEC00ADFF83C0780ED1B0ADFF8C7
:10340000680790ED0A0AB8EEC00ADFF8280780EDD9
:103410001C0ADFF8540790ED0B0AB8EEC00ADFF87B
:10342000140780ED1D0ADFF8400790ED0C0AB8EE96
:10343000C00ADFF8000780ED1E0ADFF82C0790EDC8
:103440000D0AB8EEC00ADFF8EC0680ED1F0ADFF8BF
:10345000180790ED0E0AB8EEC00ADFF8D80680ED26
:10346000200ADFF8040790ED0F0AB8EEC00ADFF873
:10347000C40680ED210ADFF8F00690ED100AB8EEE0
:10348000C00ADFF8B00680ED220ADFF8DC0690ED16
:10349000110AB8EEC00ADFF89C0680ED230ADFF8B7
:1034A000CC0690ED000AB8EEC00ADFF8880680ED81
:1034B000240A01F056F9DFF8B8160320FFF728FEBA
:1034C0004FF4FA7001F087F90020DFF8A8160870B1
:1034D00001BD0020DFF8A0160860DFF8A00600217B
:1034E0000160DFF89C0600210160704780B5DFF8BD
:1034F00094060068DFF890160860DFF89006006810
:10350000DFF884164860DFF888060068DFF8781670
:103510008860DFF880060068DFF86C16C860DFF8A6
:1035200078060068DFF860160861DFF8700600684A
:10353000DFF854164861DFF868060068DFF84816BF
:103540008861DFF860060068DFF83C16C861DFF8C4
:1035500058160920FFF7DCFD4FF4FA7001F03BF933
:1035600001BD80B5DFF844060068DFF8FC15DFF820
:1035700040261268520001EB820141F8080CDFF886
:1035800034060068DFF8E015DFF8242612685200E0
:1035900001EB820141F8040C322001F01CF9DFF844
:1035A00010060068401CDFF808160860DFF8000607
:1035B0000068092803DB0920DFF8F415086001BD65
:1035C0000000000080B5102200210620FFF702F95C
:1035D000DFF8A805006801F03BF802000B00DFF8F7
:1035E000D8150020FFF794FDDFF8D0150120FFF774
:1035F00063FADFF8CC150220FFF75EFADFF8C42586
:10360000DFF8C4150320FFF7A7FDDFF8A005026867
:10361000DFF8B8150420FFF77BFDDFF89805026896
:10362000DFF8AC150520FFF773FDDFF8A8359FED37
:10363000751B9FED7D0B0222DFF89C150620FFF71E
:10364000C9FADFF8982571A10720FFF785FDDFF89B
:1036500090359FED6F1B9FED760B0222DFF88415EE
:103660000820FFF7B7FADFF8F8349FED6B1B9FEDEA
:103670006C0B0322DFF870150920FFF7ABFADFF8B7
:10368000E4349FED651B9FED660B0322DFF85C15AC
:103690000A20FFF79FFADFF8C004006800F0D8FFA7
:1036A00002000B00DFF848150B20FFF731FDDFF8B3
:1036B000AC04006800F0CCFF02000B00DFF834150A
:1036C0000C20FFF725FDDFF8A4349FED571B9FED7D
:1036D000580B0322DFF820150D20FFF77BFADFF8E7
:1036E0001C150E20FFF7E8F901BD000000B585B0FC
:1036F000102200210620FFF76DF8DFF8B8040368F8
:10370000DFF8A8040268DFF8F8140020FFF700FDD6
:10371000DFF89C349FED761B9FED430B0222DFF810
:10372000E4140120FFF756FADFF8DC24DFF8DC149C
:103730000220FFF711FDDFF8300440690390DFF845
:10374000280400690290DFF82004C0680190DFF8C7
:10375000180480680090DFF810044368DFF808045C
:103760000268DFF8AC140420FFF7D2FCDFF8F8039E
:10377000C06A0390DFF8F003806A0290DFF8E80384
:10378000406A0190DFF8E003006A0090DFF8D80398
:10379000C369DFF8D4038269DFF874140520FFF7EA
:1037A000B7FCDFF8C403406C0390DFF8BC03006C87
:1037B0000290DFF8B403C06B0190DFF8AC03806BBC
:1037C0000090DFF8A403436BDFF89C03026BDFF883
:1037D00044140620FFF79CFCDFF8E823DFF8E81329
:1037E0000720FFF7B9FCDFF830349FED0B1B9FED8E
:1037F000100B0322DFF824140920FFF7EBF905B0C2
:1038000000BD0000000000000000204052756E0066
:103810000000000000000040000000000088C340DD
:10382000000000000088C3C0000000000000F03F5E
:10383000000000000000000080B5102200210620DA
:10384000FEF7C8FFCF4B9FED951B9FED960B022215
:1038500069A10020FFF7BEF9CC4B9FED901B9FEDB7
:10386000910B022265A10120FFF7B4F9C84B9FED2F
:103870008B1B9FED8C0B022282A10220FFF7AAF97D
:10388000C44B9FED861B9FED870B02228CA103206A
:10389000FFF7A0F9C04B9FED811B9FED820B022229
:1038A00088A10420FFF796F9BC4B9FED7C1B9FED90
:1038B0007D0B022284A10520FFF78CF9B84B9FED08
:1038C000771B9FED780B022280A10620FFF782F97B
:1038D000B44B9FED721B9FED730B02227BA107205F
:1038E000FFF778F9CE4ACF490820FFF735FC01BD34
:1038F000000000000000224080B5102200210620B8
:10390000FEF768FFC84B9FED721B9FED730B0422FF
:10391000C6490120FFF75EF9C54B9FED6D1B9FED7A
:103920006E0B0422C3490220FFF754F9C24B9FEDEE
:10393000681B9FED690B0422C0490320FFF74AF979
:10394000BF4B9FED631B9FED640B0422BD49042018
:10395000FFF740F9BC4B9FED5E1B9FED5F0B042210
:10396000BA490520FFF736F9B94B9FED591B9FED7A
:103970005A0B0422B7490620FFF72CF901BD70B598
:1039800005240025B44E2A002100300000F03AFF43
:103990000020B14948710020AF49887170BDAE491F
:1039A000AD4A92798854AC498979491CAA4A9171E7
:1039B000A9498979052902DB0021A74A917170473D
:1039C000A5484079A44A9279904201D1002012E0A2
:1039D000A148A14A5279805C01009F484079401C6F
:1039E0009D4A50719C484079052802DB00209A4A84
:1039F00050710800C0B27047417800004159000082
:103A0000DC14FF1F70B582B004000025002620687A
:103A1000FEF7CCF9001D062110FB01F00600F6B2FE
:103A2000D6F1800040100500206800908B4B0122E9
:103A30003821EDB2A81C00F09BFC01200090392336
:103A4000EDB2AA1C3921062000F0ECFC0120009008
:103A5000392379223921F6B256FA85F0801E00F01A
:103A6000E1FC606800280BD07D480078002807D171
:103A7000852000902EA301223821002000F078FC40
:103A800073BD00004278000010B504007548046062
:103A9000FFF775FF10BD0000E014FF1F00000000DD
:103AA00000001040000000000000000010B50400FD
:103AB0002000C0B2FFF773FF10BD6B48007870475D
:103AC0004279000043780000437900004478000008
:103AD0000000000000409F400000000000409FC028
:103AE00080B5FFF76DFF604908705E480068FFF71A
:103AF00089FF5C480068806880475B4800786028E0
:103B000015D157480078002811D156480068406800
:103B100000280CD0534800684068524908600020D3
:103B2000524909680870002050490968487001BD71
:103B300025630000E013FF1FD810FF1FD010FF1FE8
:103B4000D410FF1F2011FF1F1C11FF1F0005FF1FB6
:103B50000405FF1FDC13FF1F6813FF1F9013FF1FD7
:103B6000F014FF1FF414FF1F0415FF1F4C15FF1F57
:103B7000B4860000621AFF1FD413FF1FFC14FF1F3E
:103B8000F814FF1FB819FF1FE004FF1FBC19FF1F27
:103B9000C019FF1FC419FF1FC819FF1FCC19FF1F31
:103BA000D019FF1FD419FF1F5C870000D414FF1F1A
:103BB000DC10FF1FD814FF1FC08600000411FF1F78
:103BC000F810FF1F3D320000CC860000D8860000B0
:103BD000E48600000805FF1F64870000D33400005E
:103BE000EC14FF1FF08600006C8700007487000053
:103BF000FC8600000887000014870000EC10FF1FFF
:103C00008C86000020870000633500007C87000060
:103C1000E4850000F88500000C05FF1F2C870000DC
:103C2000ED340000848700007813FF1F8C870000AC
:103C30007C13FF1F948700008013FF1F9C870000E8
:103C4000A013FF1FA4870000A413FF1FAC87000070
:103C5000A813FF1FB4870000DC19FF1FBC870000FA
:103C6000641AFF1FD819FF1F631AFF1F1811FF1FC7
:103C700030B4C9B20A00002A012A01D9FE3A06D19D
:103C8000DFF8E426D2E90045C0E9004505E0DFF8A9
:103C9000D826D2E90045C0E9004530BC70472DE97F
:103CA000FE4F04000D0016005FF00109A2469DF8CA
:103CB00008106846FFF7DCFF9DF808009DF800102B
:103CC00008408146203E9DF90200401E83464FFA7F
:103CD0008BFBBBF1000F3BD40198F6B29DF80210AC
:103CE00001FB06F108444FFA8BFB10F80B000700AC
:103CF000002080465FFA88F8B8F1080F25DA380608
:103D000006D54A46D2B22900200000F0D2FD0CE0D0
:103D10005FFA89F9B9F1000F01D1012200E0002218
:103D2000D2B22900200000F0C4FD7F00641C5FFABD
:103D30008AFAB4EB0A00082804D15FFA8AFA5446DA
:103D40006D1C02E018F10108D4E7BBF1010BBEE7DE
:103D5000BDE8F78F2DE9FC4104000D0016001F009F
:103D60005FF000083900C9B26846FFF781FF5FFACB
:103D700088F816F80800002810D03B00DBB25FFA84
:103D800088F816F8082029002000FFF788FF9DF822
:103D9000010054FA80F418F10108E8E7BDE8F38166
:103DA0002DE9F74F2DED028B8EB01D001C9F109E4C
:103DB00000208DF80F0003208DF80A000120ADF8D7
:103DC00016009DF8481007A8FFF752FF0020ADF835
:103DD0001800BDF91800ADF81400BDF9140010F179
:103DE000010F00F0BC8295F900008DF808006D1CF1
:103DF0009DF90800002800F0B2829DF908002528EE
:103E00000ED09DF848309DF808000200D2B21199FA
:103E1000F6B23000FFF743FF9DF81D00861996E2C9
:103E200000208DF809009DF809008DF80B009FED2A
:103E30000D1BB0EE418AF0EE618A00208DF80E0075
:103E400095F900008DF808006D1C9DF908003028D8
:103E50000CD101208DF8090095F900008DF80800BB
:103E60006D1C1CE000000000000000009DF908002F
:103E70002D2808D102208DF8090095F900008DF851
:103E800008006D1C0BE09DF908002E2807D10120C9
:103E90008DF80F0095F900008DF808006D1C9DF954
:103EA0000800302827DB9DF908003A2823DA9DF81E
:103EB0000F0001280FD19DF80E000A219DF908205E
:103EC00001FB002030388DF80E0095F900008DF8C8
:103ED00008006D1CE3E79DF80B000A219DF90820FE
:103EE00001FB002030388DF80B0095F900008DF8AB
:103EF00008006D1CD3E79DF80F0001280BD19DF839
:103F00000E00082803DB07208DF80A0003E09DF867
:103F10000E008DF80A009DF908006C2803D09DF969
:103F200008004C280AD19DF8090050F004008DF8D3
:103F3000090095F900008DF808006D1C9DF9080036
:103F4000002800F00C829DF9080081469DF90800C8
:103F5000612805DB9DF908007B2801DAB9F1200909
:103F60004FFA89F94846422800F0308143286BD047
:103F7000442800F03381462875D04F2800F02A816C
:103F8000532806D0552800F02981582800F02A81AE
:103F90002CE138683F1D09900020804609985FFA9F
:103FA00088F810F90800002802D018F10108F5E798
:103FB0005FFA88F8ADF81A80002083469DF8090062
:103FC000800715D4404610F101089DF80B10C0B2CF
:103FD00088420DD29DF8483020221199F6B2300067
:103FE000FFF75DFE1BF1010B9DF81D008619E9E747
:103FF0009DF84830099A1199F6B23000FFF7AAFEF1
:104000009DF81D00BDF91A10484350FA86F6BDF818
:104010001A0010EB0B0B404610F101089DF80B1035
:10402000C0B288420DD29DF8483020221199F6B2D4
:104030003000FFF734FE1BF1010B9DF81D008619BF
:10404000E9E7ADF814B082E138683F1D9DF84830CB
:104050000200D2B21199F6B23000FFF720FE9DF8AF
:104060001D00861973E1F81D30F0070797ED000B6E
:104070000837B0EE408AF0EE608A51EC180B00224F
:104080000023FDF7B1FF0DD29DF80A0050F00800A3
:104090008DF80A0053EC182B0020B449FDF7BCFF43
:1040A00041EC180B51EC180BFEF7B4F9ADF8100009
:1040B0009DF80A0010F007008DF80C009DF80C0028
:1040C000401E00280CD4BDF816000A2110FB01F098
:1040D000ADF816009DF80C00401E8DF80C00EDE7C1
:1040E000BDF91600FEF7C2F9CDE90001BDF91000D7
:1040F000FEF7BCF902000B0051EC180BFEF7CEF9ED
:10410000DDE90023FDF788FFFEF784F9ADF8120022
:10411000002004009DF80A0010F007008DF80C0044
:104120009DF80C00411E8DF80C10C0B200281FD065
:10413000BDF91200002815D0BDF912000A2190FB2C
:10414000F1F201FB12008146BDF912000A2190FB39
:10415000F1F0ADF8120019F130000AA9E4B20855E7
:10416000641CDDE730200AA9E4B20855641CD7E7D7
:104170002E200AA9E4B20855641CBDF910000A21DA
:1041800090FBF1F201FB12008146BDF910000A21FB
:1041900090FBF1F0ADF8100019F130000AA9E4B27B
:1041A0000855641CBDF91000002802D0E4B2102CA0
:1041B000E3D39DF80A00000704D52D200AA9E4B234
:1041C0000855641C00208DF80F0075E002208DF862
:1041D0000D001DE008208DF80D0019E00A208DF873
:1041E0000D0015E010208DF80D0011E09DF848300D
:1041F0009DF808000200D2B21199F6B23000FFF724
:104200004EFD9DF81D0086190120ADF814009EE0BA
:104210009DF80900400703D5D7F800A03F1D0BE02B
:104220004FFA89F9B9F1440F03D1D7F800A03F1D27
:1042300002E0D7F800A03F1D4FFA89F9B9F1440F09
:104240000AD1BAF1000F07D5DAF1000A9DF809008A
:1042500050F008008DF80900002004009DF80D00C2
:10426000BAFBF0F100FB11A081469DF80D00BAFBEE
:10427000F0FA4FFA89F9B9F10A0F08DB9DF9080045
:10428000782801D1272000E0072010EB090919F157
:1042900030000AA9E4B20855641CBAF1000F02D03C
:1042A000E4B2102CDAD39DF80900000704D52D20C4
:1042B0000AA9E4B20855641CA0469DF80900C0078D
:1042C00002D55FF0300901E05FF020099DF8090098
:1042D000800714D4404610F101089DF80B10C0B2BD
:1042E00088420CD29DF848304A46D2B21199F6B2B3
:1042F0003000FFF7D4FC9DF81D008619E6E7641E28
:104300009DF848300AA8E4B2005D0200D2B21199CB
:10431000F6B23000FFF7C3FC9DF81D008619E4B229
:10432000002CECD1404610F101089DF80B10C0B2F2
:1043300088420CD29DF848304A46D2B21199F6B262
:104340003000FFF7ACFC9DF81D008619EAE7BDF8C8
:104350001800BDF814100818ADF818003DE50EB0AF
:10436000BDEC028BBDE8F78F1011FF1F0000F0BFFE
:104370002DE9F04182B004000D0016001F0008A8CE
:104380008046CDF800803B003200D2B229002000E8
:10439000FFF706FDBDE8F381F8B504000D00160037
:1043A0001F00F6B216F00300C0B2002804D00228A5
:1043B0000AD003281AD02DE000222DB2290024B201
:1043C000200000F076FA2CE0F80707D501222DB284
:1043D000290024B2200000F06CFA06E000222DB281
:1043E000290024B2200000F064FA1AE017F003005C
:1043F000022807D301222DB2290024B2200000F0A8
:1044000058FA06E000222DB2290024B2200000F064
:1044100050FA06E001222DB2290024B2200000F05B
:1044200048FAF1BD2DE9F74F82B01D000E9C0498AB
:104430000299461A03982F1A36B2012E01DB012089
:1044400000E00020C0B24000401EADF802003FB2C4
:10445000012F01DB012000E00020C0B24000401E1F
:10446000ADF80000DDF80890DDF80CA05FF0000B5F
:104470000020804636B2002E02D536B27642FFE7E3
:104480003FB2002F02D53FB27F42FFE73800310034
:1044900000B209B2884229DA029881460FFA89F9F6
:1044A0000498BDF9021000FA81F0814547D01BF154
:1044B000010B5B462200D2B2514609B2484600B217
:1044C000FFF76AFF17EB08080FFA88F85FEA480061
:1044D00036B2B04205DBBDF8000010EB0A0AB8EBBB
:1044E0000608BDF8020010EB0909D7E703988246D9
:1044F0000FFA8AFABDF9000005FA80F082451ED055
:104500001BF1010B5B462200D2B2514609B248466C
:1045100000B2FFF741FF16EB08080FFA88F85FEAD0
:1045200048003FB2B84205DBBDF8020010EB0909B4
:10453000B8EB0708BDF8000010EB0A0AD8E705B091
:10454000BDE8F08F2DE9F04782B005000E0017009E
:1045500098460A9C5FF000095FF0000A600702D4E9
:10456000E4B2002C36D1AF4202D2A9463D004F46FC
:10457000B04502D2B1464646C846E4B2002C02D14C
:104580000020824601E001208246464509D150467E
:10459000C0B2009033003A0031002800FFF742FF1C
:1045A0003CE0BD4209D15046C0B2009043462A00CB
:1045B00031002800FFF736FF30E0B0452ED35046DB
:1045C000C0B2009033003A0031002800FFF72AFF04
:1045D000761CF2E72000C0B2009043462A0031006A
:1045E0002800FFF71FFF2000C0B2009043463A00AA
:1045F00041462800FFF716FF2000C0B20090434656
:104600003A0031003800FFF70DFF2000C0B20090E3
:1046100033003A0031002800FFF704FFBDE8F387BC
:104620004FF4001C1CEB410F94BF1CEB430F09E03F
:1046300041EA030C50EA4C0C52EA0C0C03D28B42B8
:1046400008BF8242704714BF9942904270470000F1
:104650005FF0FF0C1CEAD05114BF614506E0C110A9
:10466000400721F0E04101F16051704779B900F055
:10467000004100020AD0B0FA80FC00FA0CF001F10F
:104680006051A1EB0C5101EBD02140057047410274
:104690000CBF40F4E0016FF0000100207047000003
:1046A0004FEAF17CBCF1E04C2CBFBCF5001F11E0DF
:1046B0005FEA4C0C34BFBCF17F5F2EE05FEA9C0CDC
:1046C0004FEA0C1C4FEA3C0CC10071F100414CEB6D
:1046D00050707047C90241EA5051C00218BF41F002
:1046E000010141F000414FEA6C50C0F1090021285E
:1046F00010D240EACC7CCCF1200C11FA0CF070F115
:104700000040CCF1200C21FA0CF00CF0004C40EBF6
:104710000C0070474FEACC707047490011F5001F3C
:1047200004D84FEACC10FF30C0057047C817704757
:10473000DFF800F0C911FF1FDFF800F02512FF1F9E
:104740000021080080B232280ADA80B2410111F556
:10475000FE210968114A80B242F82010401CF1E79E
:10476000704710B57F20FFF7E3FF322000F033F8E9
:1047700000200400A4B2322C0FDA0848A4B250F88A
:1047800024200023A4B2610189B27F20FFF7D4FF67
:10479000142000F020F8641CECE710BDE013FF1FAC
:1047A00010B50400002C15D0B4F1807F03D329216B
:1047B0000F4800F0AFF800200E4908600E48046072
:1047C00000200E49086005200A4908600948006871
:1047D000C003FBD510BD10B504002000441E002806
:1047E00004D007480068FFF7DBFFF6E710BD0000C4
:1047F0007882000010E000E014E000E018E000E043
:10480000001AFF1F62F30F2262F31F42401810F0DC
:10481000030308D0C91A1FD3DB0748BF00F8012DD6
:1048200028BF20F8022D130030B414461546103965
:1048300028BF20E93C00FAD8490728BF20E90C002E
:1048400048BF40F8042D890028BF20F8022D48BF3A
:1048500000F8012D30BC7047C91818BF00F8012DB1
:10486000CB0728BF00F8012D70470000F8B5040001
:1048700000F090F84FF480650026254F32002900A3
:104880003800FFF7BFFF2000FFF7FEF8F1BD80B54D
:104890001F4800F083F800F001F801BD70B54FF437
:1048A000806400251A4E2A0021003000FFF7AAFF7D
:1048B00070BDF0B40025802801D2402900D325E046
:1048C000CE08D6F10706330011F0070634000126A2
:1048D000D4F10707BE403500D2B2002A0BD00C4EEF
:1048E00006EBC006DBB20A4F07EBC007DBB2FF5C8A
:1048F0002F43F7540AE0064E06EBC006DBB2044F26
:1049000007EBC007DBB2FF5CAF43F754F0BC704766
:10491000B815FF1F38B504000D00002000F044F862
:104920002A002100174800F077F8002000F059F81D
:104930004FF47A70FFF74FFFF2E738B504000D002F
:10494000210049B2012000F09DF9200032BD10B5D0
:104950000D480468012000F027F8012000F041F81C
:104960000A48E4B20F2101FB04F100EB0102E4B2BA
:104970002100074800F050F84FF47A70FFF72BFF42
:10498000EBE700005084000004ED00E01C05FF1F71
:104990003C82000080B500F056FA01BD10B504005D
:1049A000200000F05AFB10BD10B5040064B2042CC6
:1049B00007DA01220121174864B2005D00F092FB82
:1049C0000EE0042004002000441E40B2002807D05E
:1049D000012201210F4864B2005D00F083FBF2E781
:1049E00010BD10B5040064B2042C05DA094864B2A5
:1049F000005D00F007FC0CE0042004002000441ED1
:104A000040B2002805D0034864B2005D00F0FAFB14
:104A1000F4E710BD2C11FF1F0EB400B582B003A93E
:104A2000009102466B460121034878440A30FCF7A6
:104A3000A7FB06BC5DF810FB113B0000012110F044
:104A40001F029140DFF8C02240B2430942F8231010
:104A500070472DE9F84304000D0064B2002C08D023
:104A6000022C2CD018D3042C4FD03BD3052C5FD074
:104A700071E0DFF89802006850F48060DFF88C1273
:104A800008604FF44071662000F0FAFB4FF440716B
:104A9000672000F0F5FB5EE0DFF87002006850F47C
:104AA0000060DFF8681208604FF44071432000F0A6
:104AB000E7FB4FF44071442000F0E2FB4BE0DFF8ED
:104AC0004C02006850F48050DFF8401208604FF448
:104AD0004071632000F0D4FB4FF44071622000F07D
:104AE000CFFB38E0DFF82402006850F40050DFF814
:104AF0001C1208604FF44071852000F0C1FB4FF498
:104B00004071842000F0BCFB25E0DFF8040200685F
:104B100050F48060DFF8F81108604FF440714E20C7
:104B200000F0AEFB4FF440714F2000F0A9FB12E003
:104B3000DFF8DC01006850F40060DFF8D411086091
:104B40004FF44071892000F09BFB4FF440718820A6
:104B500000F096FBFFE7DFF8BC0164B250F82400D8
:104B6000C07810F0F300DFF8AC1164B251F82410F3
:104B7000C870DFF8A00164B250F824008078DFF834
:104B8000941164B251F82410887064B2002C02D0E1
:104B900064B2012C07D1DFF8800100684FF47A710C
:104BA0004843814606E0DFF8740100684FF47A71EB
:104BB000484381462801B9FBF0F00600B6B2B6F5CD
:104BC000005F02DB41F6FF700600B9FBF5F0B6B2FC
:104BD000B0EB06100700BFB2202F03DBDC215048EA
:104BE000FFF798FE4B4864B250F82400007810F0AC
:104BF000E0008046C6F3042050EA0800454964B24C
:104C000051F824100870434864B250F824004670EC
:104C1000404864B250F82400807A10F0E0008046EA
:104C200017F01F0050EA08003A4964B251F8241006
:104C30008872384864B250F82400007C50F0880034
:104C4000344964B251F824100874324864B250F800
:104C50002400C07850F00C002E4964B251F82410A2
:104C6000C870BDE8F1832B4A40B252F82020127977
:104C70009206F8D5274A40B252F8202092F9072030
:104C80000A707047234A40B252F820201279120667
:104C9000F8D5204A40B252F82020D1717047010067
:104CA0001C4849B250F82100807D002801D0012025
:104CB00000E00020704770B504000D0016003000C1
:104CC000461E002809D095F90000010049B22000D5
:104CD00040B2FFF7D7FF6D1CF1E770BD10B50400BF
:104CE0000C4864B250F82400C07850F02000094904
:104CF00064B251F82410C87064B260002D3040B224
:104D0000FFF79CFE10BD000000E100E0348004408D
:104D100028800440B80CFF1F001AFF1F081AFF1F4D
:104D2000CC83000008210122DFF894331A600022AE
:104D3000DFF890331A600A00511ED2B2002A15D053
:104D4000020604D50122DFF880331A6003E0002256
:104D5000DFF874331A600122DFF868331A6000BF8D
:104D60000022DFF860331A604000E4E7704700007B
:104D700008210022DFF848331A600022DFF84433AC
:104D80001A600A00511ED2B2002A15D0020604D5BC
:104D90000122DFF834331A6003E00022DFF8283301
:104DA0001A600122DFF81C331A6000BF0022DFF80E
:104DB00014331A604000E4E7704738B504000D0072
:104DC000B5F15000C0B2FFF7D3FF2000C0B2000918
:104DD00050F01000C0B2FFF7CBFF14F00F0050F0FE
:104DE0000100C0B2FFF7C4FF31BD70B50400002060
:104DF0000500EDB2082D17DAB5F15000C0B2FFF78B
:104E0000B7FF0120FFF7B4FF1020FFF7B1FF00202C
:104E10000600F6B2802E05DA2000C0B2FFF782FF4E
:104E2000761CF6E76D1CE4E770BD80B2002809D05F
:104E30004FF47A5211000A00511E92B2002AFAD1A0
:104E4000401EF2E7704780B501220121362000F0B4
:104E500049F901220121352000F044F90122012104
:104E6000342000F03FF901220121332000F03AF90B
:104E7000012201214F2000F035F90120DFF8441212
:104E800008600020DFF8441208600020DFF84012BC
:104E900008603220FFF7C9FF0120DFF834120860F4
:104EA000AE20FFF765FF0020FFF762FF1020FFF73D
:104EB0005FFF4020FFF75CFF8120FFF759FFCF2005
:104EC000FFF756FFA120FFF753FFC820FFF750FF61
:104ED000A620FFF74DFFA820FFF74AFF3F20FFF76E
:104EE00047FFD320FFF744FF0020FFF741FFD52005
:104EF000FFF73EFF8020FFF73BFFD920FFF738FF89
:104F0000F120FFF735FFDA20FFF732FF1220FFF71D
:104F10002FFFDB20FFF72CFF4020FFF729FF202089
:104F2000FFF726FF0220FFF723FF8D20FFF720FF6A
:104F30001420FFF71DFFA420FFF71AFFA620FFF79C
:104F400017FFAF20FFF714FF0020FFF74EFF0021EF
:104F50000020FFF732FF01BD2DE9F84304000D00EA
:104F6000160000275FF000085FF000095FFA89F97A
:104F700016F8090000282CD05FFA89F916F8090004
:104F800020380700E4B27F2C02DB002004006D1CF7
:104F90002900C9B22000C0B2FFF70FFF00208046F1
:104FA0005FFA88F8B8F1060F0FDADFF82801FFB2D0
:104FB000062101FB07F108445FFA88F810F80800A1
:104FC000FFF7B0FE18F10108EAE7A41D19F1010985
:104FD000CCE7BDE8F1832DE9F84F04000D00160081
:104FE0009B460A9F5FF000085FFA8BFB08209BFB43
:104FF000F0F100FB11B0002805D15FFA8BFB08200F
:105000009BFBF0FB06E05FFA8BFB08209BFBF0F0BC
:1050100010F1010B002082465FFA8AFABAF1070FFD
:1050200019DA5146C9B20020FFF7C7FE00208146B9
:105030005FFA89F9B9F1800F0ADA1FFA88F817F8D0
:105040000800FFF76FFE18F1010819F10109EFE7F9
:105050001AF1010AE0E7BDE8F18F70B50400002005
:105060000600F6B2082E14DA3100C9B20020FFF7AC
:10507000A4FE00200500EDB2802D08DAEDB204EBAD
:10508000C500F6B2805DFFF74DFE6D1CF3E7761CA0
:10509000E7E770BD80B510480090402380220021D2
:1050A0000020FFF798FF0D4A06213420FFF754FF38
:1050B0000B4A07210420FFF74FFF01BD000000004D
:1050C0004C08FE435808FE435408FE433C10FE4380
:1050D0005008FE43087C0000D00CFF1F44870000EE
:1050E0003085000070B504000D0016004FF480718B
:1050F0002000C0B200F0C4F86DB2002D11D15E489E
:10510000E4B2611150F821005B49E4B2621151F838
:1051100022104969012214F01F039A409143416112
:1051200036E05548E4B2611150F821005249E4B22A
:10513000621151F822104969012214F01F039A40AC
:1051400011434161F6B2002E11D14B48E4B2611116
:1051500050F821000068012114F01F02914088439B
:105160004549E4B2621151F82210086010E042484B
:10517000E4B2611150F821000068012114F01F020F
:10518000914008433C49E4B2621151F82210086092
:1051900070BD38B504000D003748E4B2611150F815
:1051A0002100406914F01F01C840C00703D46321E7
:1051B0003248FFF7AFFBEDB2002D11D12E48E4B21B
:1051C000611150F821000068012114F01F02914084
:1051D00088432949E4B2621151F82210086010E0B6
:1051E0002548E4B2611150F821000068012114F053
:1051F0001F02914008432049E4B2621151F8221085
:10520000086031BD10B504001B48E4B2611150F8CC
:105210002100406914F01F01C840C00703D47B215E
:105220001648FFF777FB1448E4B2611150F82100EB
:10523000012114F01F029140C16010BD10B504009F
:105240000D48E4B2611150F82100406914F01F01CB
:10525000C840C00703D58C210848FFF75BFB064810
:10526000E4B2611150F82100006914F01F01C84038
:1052700010F0010010BD0000340CFF1F6C83000013
:1052800010B42B4A13684FF400740200D2B25209D2
:1052900014FA02F21A43264B1A60264AC0B243118E
:1052A00052F82320012310F01F04A340C2F8A030BD
:1052B000204AC0B2431152F82320C0B210F01F039D
:1052C00042F8231010BC704710B4194A13684FF409
:1052D00000740200D2B2520914FA02F21A43144BBB
:1052E0001A60144AC0B2431152F82320012310F06F
:1052F0001F04A340C2F8A03031F4E0610D4AC0B2EF
:10530000431152F82320C0B210F01F0352F823209B
:1053100012F4E0621143074AC0B2431152F823204D
:10532000C0B210F01F0342F8231010BC70470000F9
:1053300038800440A40CFF1FDFF800F0A511FF1F08
:1053400010F00702DFF81C381B6819004FF6FF0346
:105350001940DFF8143853EA02231943DFF8043800
:1053600019607047012110F01F029140DFF8FC27FF
:1053700040B2430942F82310704710B440B20028ED
:1053800009D50A01DFF8E83740B210F00F042344D2
:1053900003F8042C04E00A01DFF8D83740B21A54AD
:1053A00010BC704780B572B6DFF8CC07FFF734FB4E
:1053B000DFF8C807FFF730FBDFF8C407FFF72CFB67
:1053C000062000F04BFC012201218920FFF78AFE14
:1053D000B7A0FFF721FBDFF8AC07FFF71DFBDFF8F5
:1053E000A807FFF719FB262000F0B4FCB0A0FFF7D8
:1053F00013FBDFF89807FFF70FFB00220121412084
:10540000FFF770FEAAA0FFF707FBDFF88407FFF79E
:1054100003FBFFF718FD0020FFF7E7FCFFF73AFE5C
:105420004FF49670FFF7D7F901214120FFF7B1FE45
:105430004FF4FA70FFF7CFF99DA0FFF7EDFADFF810
:105440005407FFF7E9FADFF85007FFF70FFAFFF705
:105450001EFA97A0FFF7E0FADFF84007FFF7DCFA43
:1054600000F0F6FD92A0FFF7D7FADFF83407FFF758
:10547000D3FA00F011FE8EA0FFF7CEFADFF8240772
:10548000FFF7CAFA8AA0FFF7C7FADFF81C07FFF791
:10549000C3FA00F015FE86A0FFF7BEFADFF80C078E
:1054A000FFF7BAFAFFF748FF00F072FF00F08DF83F
:1054B0007FA0FFF7B1FADFF8F806FFF7ADFA7CA09E
:1054C000FFF7AAFADFF8EC06FFF7A6FA5FF4E1317E
:1054D0000320FFF7BEFA76A0FFF79EFADFF8D806A2
:1054E000FFF79AFA0420FFF72BFF03215520FFF75F
:1054F00044FF02214320FFF740FF0FF2E551432014
:1055000001F0EFF80320FFF7E9FBDFF8B0060068D1
:10551000052101FB00F1002001F0FAF80FF29911CA
:10552000542001F0DEF84420FFF71CFFDFF88C0662
:105530000068502101FB00F1012001F0E9F80FF2B1
:105540006951552001F0CDF84520FFF70BFF0420ED
:10555000DFF86C1608705720FFF704FF54A0FFF720
:105560005BFADFF81806FFF757FADFF85806FFF77F
:1055700053FA62B60120DFF8501608602021DFF8E8
:105580004C0601F003F90A220121262000F03EFD1D
:1055900000EE100AB8EE400ADFED460A80EE200A5F
:1055A00010EE100AFFF754F85FF06632DFF820368D
:1055B000FCF732FD0022DFF81C36FCF72DFDFFF76B
:1055C0006FF8DFF814160860D8E7DFF810060068F7
:1055D000DFF80C160860DFF804064068DFF80016F4
:1055E0004860DFF8F8058068DFF8F4150861DFF837
:1055F000EC05C068DFF8E8154861DFF8E0050069F0
:10560000DFF8DC150862DFF8D4054069DFF8D01553
:105610004862DFF8C8058069DFF8C4150865DFF85F
:10562000BC05C069DFF8B8154865DFF8B005006A49
:10563000DFF8AC150866DFF8A405406ADFF8A015AE
:105640004866DFF89805806ADFF894150867DFF888
:105650008C05C06ADFF888154867DFF88005006BA5
:10566000DFF87C15C1F8A000DFF87005406BDFF8AB
:105670007015C1F8A400DFF86405806BDFF86015D1
:10568000C1F8B000DFF85405C06BDFF85415C1F85D
:10569000B400DFF84805006CDFF84415C1F8C0001D
:1056A000DFF83805406CDFF83815C1F8C4007047E2
:1056B0004F4B0A000000804580B5DFF828050068E0
:1056C00001282FD1DFF80005006800282AD1DFF873
:1056D000180590ED000AF7EE000A30EE200ADFF818
:1056E000080580ED000ADFF8000590ED000AF3EEF2
:1056F000040AB4EE600AF1EE10FA13DBDFF8EC04F2
:105700000068FEF7A5FFDFF8E824DFF8E834FCF7CF
:10571000C5FFFEF7C5FFDFF8D4140860DFF8C80442
:1057200000210160DFF8D0040068DFF8D0140880A1
:10573000DFF8CC040068DFF8C4144880DFF8B80450
:105740000068DFF8C0140860DFF8B4040068DFF810
:10575000B4144860DFF8B004006801F0A8FBDFF87B
:1057600084040068012809D1DFF85C04006800287F
:1057700004D10120DFF89414086003E00020DFF872
:105780008C140860DFF880040068082829D0DFF84E
:105790005004DFF87C144968282251430844DFF89C
:1057A0007014096800EBC10090ED000AB8EEC00A61
:1057B000DFF8600480ED000ADFF82404DFF85014FD
:1057C0004968282251430844DFF84414096800EB73
:1057D000C10090ED010AB8EEC00ADFF83C0480ED8C
:1057E000000ADFF8380400680A2807DADFF82C041A
:1057F0000068401CDFF8241408602AE0DFF8040485
:105800000068DFF81C148870DFF8F8034068DFF8E0
:105810001014C870DFF80814AFA0FFF7FDF8DFF828
:10582000EC030068012808D1AA21ACA0FFF7F4F826
:10583000BB21AAA0FFF7F0F807E0CC21A7A0FFF753
:10584000EBF8DD21A5A0FFF7E7F80020DFF8CC1387
:105850000860DFF874030068002840F09D80DFF8DE
:105860009C03B0F9000000EE100AB8EEC00A00F088
:105870003FFCDFF8B0130860DFF88003B0F90200E6
:1058800000EE100AB8EEC00A00F0D2FCDFF8981360
:105890000860DFF890030068B0F5966F05DB4FF401
:1058A0009660DFF88013086005E0DFF87803006891
:1058B000DFF870130860DFF86C030068DFF86C1322
:1058C000884205DADFF86803DFF85813086005E05E
:1058D000DFF850030068DFF84C130860DFF8480376
:1058E0000068B0F5966F05DB4FF49660DFF838136B
:1058F000086005E0DFF830030068DFF82C1308606B
:10590000DFF824030068DFF82413884205DADFF8A3
:105910002003DFF81413086005E0DFF80C030068CB
:10592000DFF80413086041F25C20DFF8081309680F
:10593000401ADFF8F41209680A180221032001F066
:10594000AEFC41F25C20DFF8F0120968401ADFF883
:10595000D41209680A180321032001F0A0FC41F2C7
:105960005C20DFF8D0120968401ADFF8BC12096821
:105970000A180121032001F092FC41F25C20DFF8BB
:10598000B8120968401ADFF89C1209680A18002149
:10599000032001F084FC27E041F25C20DFF8941240
:1059A0000968421A0121032001F079FC41F25C20D0
:1059B000DFF884120968421A0021032001F06FFC0D
:1059C00041F25C20DFF86C120968421A02210320C0
:1059D00001F065FC41F25C20DFF85C120968421AB4
:1059E0000321032001F05BFCDFF85002006801286E
:1059F00035D1DFF8F0010068002830D1DFF8EC0184
:105A000090ED000AB5EE400AF1EE10FA27D041F20F
:105A10005C20DFF820120968421A0121032001F0FE
:105A20003EFC41F25C20DFF810120968421A0021A6
:105A3000032001F034FC41F25C20DFF8F811096822
:105A4000421A0221032001F02AFC41F25C20DFF817
:105A5000E8110968421A0321032001F020FCDFF855
:105A6000E001006801280CDB002201214120FFF742
:105A700039FBDFF8CC010068401EDFF8C411086074
:105A800008E0012201214120FFF72CFB0020DFF874
:105A9000B0110860DFF8AC01006850F00100DFF8D9
:105AA000A411086001BD000080B500F025F9DFF801
:105AB00098110870DFF890010078FDF7F7FFFEF706
:105AC0000FF8FEF7E4FEDFF88401006850F00100F3
:105AD000DFF87811086001BD257300002563000020
:105AE00080B50320FFF7DBF8012808D169460320C1
:105AF000FFF7B9F89DF80000C0B200F001F801BD51
:105B0000534991F90010002906D1C0B2FF2827D1CE
:105B100001214F4A117023E04E4991F900100029EC
:105B200006D1C0B2EE281BD101214A4A117017E0FC
:105B3000494991F90010002906D1C0B22E490860E8
:105B40000121454A11700BE0C0B22D4908600021C7
:105B50003F4A117000213F4A117000213E4A1170E6
:105B6000704700000CED00E00000FA0500E100E0E5
:105B700018ED00E000E400E06C850000A88400005F
:105B80000C86000080850000948500001C860000C3
:105B90002C8600003C860000E010FF1F4C860000B1
:105BA0005C86000000850000A8850000BC85000020
:105BB000D08500006C86000018850000081AFF1FC1
:105BC0007011FF1F7C860000EC14FF1FB014FF1F34
:105BD00066660A4000000840AC14FF1F0415FF1F52
:105BE0001004FF1F0015FF1FF814FF1FFC14FF1FF8
:105BF0009A9999999999B93FD414FF1FA814FF1F36
:105C0000D814FF1FB813FF1F0805FF1F5415FF1FEF
:105C1000C813FF1F6813FF1F9013FF1F5015FF1FAE
:105C20001005FF1FE414FF1FE814FF1F51FBFFFFC7
:105C300050FBFFFFF014FF1FF414FF1F4C15FF1F54
:105C4000D014FF1F0C7103405E1AFF1F1C7103402C
:105C50005F1AFF1F601AFF1F611AFF1F10B50400B3
:105C600064B2062C0DDA00220021224864B2005DE5
:105C7000FFF738FA03211F4864B2005DFFF724FBE9
:105C800014E0062004002000441E40B200280DD07D
:105C900000220021174864B2005DFFF723FA0321B8
:105CA000144864B2005DFFF70FFBECE710BD10B5C0
:105CB0000400104864B2005DFFF7C0FA002801D16B
:105CC000002000E0012010BD10B50400200040B20B
:105CD000FFF7EDFF00280AD10A20FEF77CFD200027
:105CE00040B2FFF7E4FF002801D1002000E00120CE
:105CF00010BD00002411FF1F80B50020FFF7E4FF56
:105D0000002801D1502023E00120FFF7DDFF00280B
:105D100001D120201CE00220FFF7D6FF002801D18E
:105D2000302015E00320FFF7CFFF002801D110201D
:105D30000EE00420FFF7C8FF002801D1402007E053
:105D40000520FFF7C1FF002801D1602000E00020FE
:105D500002BD000038B5040064B26511EDB2002D3B
:105D600002D0012D11D021E0A348006850F000605E
:105D7000A1490860A148006830F090009F49086080
:105D80009E4800689D49086014E09D48006850F0F6
:105D900000609B4908609948006830F410409749BA
:105DA0000860964800689549086003E033219548EB
:105DB000FEF7B0FD64B22000002800F089800128C1
:105DC00000F08680032800F0838008284ED0092840
:105DD00051D00A2854D00B2857D00C285AD00D285F
:105DE0005DD00E2860D00F2863D0102870D0112805
:105DF00064D0122867D013286AD0142868D01A28D3
:105E000066D01D2864D01E2862D0202861D02128A9
:105E10005FD023285DD024285CD025285FD0262899
:105E200062D0272865D0282868D029286BD02A2856
:105E30006ED02B2871D02C2874D02D2877D02E2806
:105E40007AD02F287DD0302800F0858031287DD071
:105E5000322800F0808033287DD034287BD03A2847
:105E600079D03D2877D03E2875D075E000212020DC
:105E7000FFF706FA74E000212120FFF701FA6FE036
:105E800000210720FFF7FCF96AE000210820FFF756
