:10000000F8FF002011040000C7480000C7480000A6
:10001000C7480000C7480000C7480000C7480000A4
:10002000C7480000C7480000C7480000C748000094
:10003000C7480000C7480000C7480000C748000084
:10004000C7480000C7480000C7480000C748000074
:10040000FFFFFFFFFFFFFFFFFFFFFFFFFEFFFFFFFD
:1004100062B607F0B1FCFEE72000000020000000FB
:10042000000000000000000062000000200000004A
:100430000000000000000000A400000021000000F7
:1004400000000000000000003E00000086000000E8
:1004500000000000000000003D0000003C00000023
:1004600000000000000000001F000000620000000B
:1004700000000000000000006100000064000000B7
:100480000000000000000000A40000006400000064
:100490000000000000000000850000008600000051
:1004A0000000000000000000870000003E00000087
:1004B00000000000000000001F000000A20000007B
:1004C000000000000000000060000000A500000027
:1004D0000000000000000000A1000000A4000000D7
:1004E0000400000002000000020000000200000002
:1004F00000000000040000000200000000000000F6
:100500000400000004000000F628B4C0713DA4C13E
:1005100001000000FFEE000000B0034000B00B40FF
:1005200000000000000000000000000000000000CB
:1005300000000000000000000000000000004E6FFE
:100540006E4D61736B61626C650000000048617202
:10055000644661756C740000000000004D656D4DCF
:10056000616E6167656D656E74000042757346610A
:10057000756C7400000000000000557361676546EB
:1005800061756C74000000000000000000000000B5
:10059000000000000000000000000000000000005B
:1005A000000000000000000000000000000000004B
:1005B000000000000000000000000000000000003B
:1005C0000000000000535643616C6C000000000006
:1005D0000000000044656275674D6F6E69746F724C
:1005E000000000000000000000000000000000000B
:1005F000000050656E6453560000000000000000CB
:10060000005379735469636B000000000000000020
:10061000444D413000000000000000000000004494
:100620004D41310000000000000000000000444D7A
:1006300041320000000000000000000000444D4175
:10064000330000000000000000000000444D413471
:100650000000000000000000000000444D41350093
:1006600000000000000000000000444D4136000082
:10067000000000000000000000444D413700000071
:100680000000000000000000444D41380000000060
:1006900000000000000000444D413900000000004F
:1006A000000000000000444D413130000000000017
:1006B0000000000000444D41313100000000000006
:1006C00000000000444D41313200000000000000F5
:1006D000000000444D4131330000000000000000E4
:1006E0000000444D413134000000000000000000D3
:1006F00000444D41313500000000000000000000C2
:10070000444D415F4572726F720000000000004D61
:10071000434D0000000000000000000000004654AF
:10072000464C00000000000000000000005265611F
:10073000645F436F6C6C6973696F6E004C56445F05
:100740004C565700000000000000004C4C570000C1
:10075000000000000000000000005761746368643E
:100760006F6700000000000000524E4700000000CC
:10077000000000000000000049324330000000008B
:10078000000000000000004932433100000000007A
:10079000000000000000535049300000000000003D
:1007A000000000000053504931000000000000002C
:1007B000000000005350493200000000000000001B
:1007C00000000043414E305F4F525F4D425F627503
:1007D000660043414E305F4275735F4F66660000AE
:1007E0000043414E305F4572726F7200000000009E
:1007F00043414E305F54785F5761726E696E674354
:10080000414E305F52785F5761726E696E67434147
:100810004E305F57616B655F557000000052657325
:1008200065727665643531000000000052657365BD
:10083000727665643532000000000043414E315F3E
:100840004F525F4D425F6275660043414E315F42D9
:1008500075735F4F666600000043414E315F45721D
:10086000726F72000000000043414E315F54785FA8
:100870005761726E696E6743414E315F52785F57C0
:1008800061726E696E6743414E315F57616B655FA0
:1008900055700000005265736572766564353900E5
:1008A00000000000526573657276656436300000A2
:1008B00000000055415254305F52585F54580000B8
:1008C000000055415254305F455252000000000074
:1008D0000055415254315F52585F54580000000097
:1008E00055415254315F45525200000000000055FE
:1008F000415254325F52585F545800000000554135
:100900005254325F455252000000000000554152DF
:1009100054335F52585F5458000000005541525400
:10092000335F4552520000000000005541525434DC
:100930005F52585F54580000000055415254345FD4
:1009400045525200000000000055415254355F529C
:10095000585F54580000000055415254355F4552CD
:10096000520000000000004144433000000000003D
:10097000000000000000414443310000000000007E
:100980000000000000434D50300000000000000057
:1009900000000000434D5031000000000000000046
:1009A000000000434D503200000000000000000035
:1009B000000046544D300000000000000000000020
:1009C0000046544D3100000000000000000000000F
:1009D00046544D32000000000000000000000043BB
:1009E0004D540000000000000000000000005254C0
:1009F000430000000000000000000000005265738A
:100A00006572766564383300000000005049543048
:100A100000000000000000000000005049543100B8
:100A200000000000000000000000504954320000A7
:100A30000000000000000000005049543300000096
:100A400000000000000000005044423000000000A0
:100A5000000000000000005553423000000000007C
:100A600000000000000055534244434400000000D1
:100A70000000000000454E45545F313538385F5462
:100A8000696D6572454E45545F5472616E736D6950
:100A9000740000454E45545F526563656976650094
:100AA0000000454E45545F4572726F7200000000B1
:100AB0000049325330000000000000000000000038
:100AC00053444843000000000000000000000044C0
:100AD00041433000000000000000000000004441DD
:100AE00043310000000000000000000000545349A2
:100AF0003000000000000000000000004D434700EF
:100B000000000000000000000000004C5054696D1F
:100B10006572000000000000000052657365727687
:100B2000656431303200000000504F5254410000E3
:100B30000000000000000000504F5254420000002E
:100B400000000000000000504F525443000000001D
:100B5000000000000000504F52544400000000000C
:100B60000000000000504F525445000000000000FB
:100B7000000000005265736572766564313038009C
:100B8000000000526573657276656431303900008B
:100B90000000526573657276656431313000000083
:100BA0000052657365727665643131310000000072
:100BB000526573657276656431313200000000520F
:100BC00065736572766564313133000000005265EB
:100BD00073657276656431313400000000526573CC
:100BE00065727665643131350000000052657365C9
:100BF00072766564313136000000005265736572AB
:100C00007665643131370000000052657365727695
:100C10006564313138000000005265736572766595
:100C2000643131390000000000800340009003402F
:100C300000800B4000900B4000F00F4040F00F4050
:100C400080F00F40C0F00F4000F10F4066000A1D19
:100C500032000701640007106E00040678000408E3
:100C60008200040A8C00040C9600040EA0000410FC
:100C7000AA000412B4000414BE000416C80004182C
:100C8000D200041ADC00041CE100041DE600041E6E
:100C9000EB00041FF4000317FA0003181301010608
:100CA0002C010214000109080090044000A0044037
:100CB00000B0044000C0044000D0044000A0064042
:100CC00000B0064000C0064000D0064000A00E4024
:100CD00000B00E4000000000000000000000000016
:100CE0000000000000000000000000000000000004
:100CF00000000000000000000000000000000000F4
:100D000000000000000000000000000000000000E3
:100D100000000000000000000000000000000000D3
:100D2000000000000000000000000080808080C003
:100D3000C0C0C0E020000000000000000000000073
:100D400000000000000000000000000000000000A3
:100D50000000000000000000000000000000000093
:100D60000000000000000000000000000000000083
:100D70000000000000000000000000000000000073
:100D800000000000000000000000000000808080E3
:100D900080C0C0C0C0E0E0E0E0F0F0F07878B8B823
:100DA000FCDC7C7CBE9EDEEFEFF7FBFFFDFFFE7FF1
:100DB0001F0701000000000000000000000000000C
:100DC0000000000000000000000000000000000023
:100DD0000000000000000000000000000000000013
:100DE0000000000000000000000000000000000003
:100DF00000000000404040E0E0E0F0F0F0F0F8F8E3
:100E0000F8F8FCFCFCFCFEFEFEFF7F7F3FBF9FDF8F
:100E1000DFEFEFF7F77B3BBB9DDDEEE6F7FBFBFD7E
:100E2000FCFEFFFFFFFFFFFFFFFF7F3F0F03000000
:100E300000000000000000000000000000000000B2
:100E400000000000000000000000000000000000A2
:100E50000000000000000000000000000000000092
:100E60000000000000000000000000000000000082
:100E70000000000000000000000000010101030369
:100E8000030307031BF9F9FDFCFEFE1F0F8FA737B5
:100E900073F9FDFCFEFFFFFFFFB3B18DCB3B1B3DA4
:100EA00067431FFFFFFF7F1F0701000000000000D6
:100EB0000000000000000000000000000000000032
:100EC0000000000000000000000000000000000022
:100ED0000000000000000000000000000000000012
:100EE0000000000000000000000000000000000002
:100EF00000000000000000000000000000000000F2
:100F0000000000000000073FFF1F81F07F3F3F1FF0
:100F10000E0600010303070F0F1F1F3F7E7EFFFF1A
:100F2000FE7E3F0F030000000000000000000000F4
:100F300000000000000000000000000000000000B1
:100F400000000000000000000000000000000000A1
:100F50000000000000000000000000000000000091
:100F60000000000000000000000000000000000081
:100F70000000000000000000000000000000000071
:100F80000000000000000000000001000000000060
:100F90000000000000000000000000000000000150
:100FA0000100000000000000000000000000000040
:100FB0000000000000000000000000000000000031
:100FC0000000000000000000000000000000000021
:100FD0000000000000000000000000000000000011
:100FE0000000000000000000000000000000000001
:100FF00000000000000000000000000000000000F1
:1010000000000000000000000000000000000000E0
:1010100000000000000000000000000000000000D0
:1010200000000000000000000000000000000000C0
:1010300000000000000000000000000000000000B0
:1010400000000000000000000000000000000000A0
:101050000000000000000000000000000000000090
:101060000000000000000000000000000000000080
:101070000000000000000000000000000000000070
:101080000000000000000000000000000000000060
:101090000000000000000000000000000000000050
:1010A0000000000000000000000000000000000040
:1010B0000000000000000000000000000000000030
:1010C0000000000000000000000000000000000020
:1010D000000000000000F0409A99993E0000644230
:1010E00001000000BC83000000000000813500000A
:1010F00054840000DC10FF1F91360000C8830000FC
:10110000DC10FF1FC53700005C840000DC10FF1FEF
:10111000853800000106080010760000B019FF1F96
:1011200000007A458FC2353F6A6B6E6C676D0000B8
:101130003435363702040101D819FF1F281AFF1F62
:10114000D819FF1FD819FF1FD819FF1F6911FF1FDA
:101150005011FF1F00000000000000000000000010
:10116000000000000000000000000000000000007F
:1011700000000000010000002DE9F04FA1B0824600
:10118000002016461D4602910B900DF144086FF0A9
:1011900000490AE016F8011B0298D0470028029087
:1011A00000F0AF820B98401C0B903078010001D109
:1011B0000B98A8E22528EDD1002005900690079015
:1011C000089009900A9001E040F0010016F8011F14
:1011D0002029F9D023290DD02B2904D02D2906D080
:1011E00030290AD00CE040F0020080B2EEE740F077
:1011F0000400FAE740F00800F7E740F01000F4E7D9
:101200002A290ED12968296051F8042B2960002A67
:101210000D9204D5514240F004000D9180B2761C2D
:1012200011E000210D9109E00D99494505D001EB30
:10123000810302EB430130390D91761C3278A2F123
:1012400030010A29F0D331782E2903D04FF0FF3135
:101250000C911DE016F8011F2A2907D12968296081
:10126000761C51F8042B29600C9211E000210C919E
:1012700009E00C99494505D001EB810302EB4301DC
:1012800030390C91761C3278A2F130010A29F0D362
:10129000ADF838000FF6D820317800F077FD08B1AE
:1012A00016F8010B8DF83A009DF83A00682802BF45
:1012B00031786829622005D06C2804BF30786C280A
:1012C00003D171208DF83A00761C11A8049016F80D
:1012D000017BB7F1250024D02038022840F2C380DA
:1012E000133800F0E8800B3800F05681401E00F003
:1012F0002C81401E022840F2B680001F00F025819C
:10130000401F00F08180401E00F0D580401E24D098
:10131000C01E0BD0801E00F0CE80C01E00F0CB801F
:1013200044E125208DF84400012049E12868286027
:1013300050F8044B286003940C9F002F04D52046DE
:1013400000F030FD074606E03A460021204600F056
:1013500045FD00B1071B069733E12968296000228B
:1013600051F8040B29600021CDE9000111A8039078
:10137000DDE900019142049F08BF90424FF03C0C10
:1013800001D10C9AC2B100F00F033033DBB23A2B1B
:10139000A8BF2733ACF101020009BB54944640EAD0
:1013A000017009090022914208BF904204D0039ABB
:1013B00007EB0C039A42E6D307EB0C000390CCF149
:1013C0003C010C980691814209DA401A08904FF6C8
:1013D000EF71BDF838000840ADF83800F1E00028A2
:1013E00040F1EF809DF8380000F01400102840F024
:1013F000E8800D98059A801A089A801A401A0128E8
:10140000C0F2DF800890DCE09DF83A0062281AD034
:10141000682806D06A280CD06C281CD0712808D007
:1014200019E02868286050F8041B28600B98088091
:10143000C7E02868286050F8042B28600B98C11773
:10144000C2E90001BDE02868286050F8041B28604C
:101450000B980870B5E02868286050F8041B2860D5
:101460000B980860ADE02868C01D20F007022A60D4
:10147000D2E9000108322A60CDE90001002902D535
:1014800005982D210AE0BDF83800810702D505989E
:101490002B2103E0C00705D50598202108F800108E
:1014A000401C059011A805990844039039466846E8
:1014B00000F0E8F985E09DF83A006C280DD071281D
:1014C00018BF6A2809D12868C01D20F007022A60C9
:1014D000D2E9000108322A6005E02968296051F844
:1014E000040B29600021CDE900019DF83A0068282D
:1014F00003D1DDE9000180B20BE0622803D1DDE910
:101500000001C0B205E0742818BF7A2804D1DDE9D3
:1015100000010021CDE900019DF83800000732D517
:10152000DDE900230020834208BF82422BD047F030
:101530002000782827D10598302108F80010401C99
:10154000411C059108F800701DE09DF83A002946FD
:1015500000F0DCF8CDE90001DDE9002300218B4239
:1015600002DA05982D210AE0BDF83800810702D57E
:1015700005982B2103E0C00705D50598202108F820
:101580000010401C059011A80599084403903946A5
:10159000684600F0F2F814E0012005902868286001
:1015A00050F8041B28608DF844100AE025208DF8BF
:1015B000440001200590380003D088F80170022013
:1015C00005900D980599401A0899401A0699401AF5
:1015D0000999401A0799401A0A99471A9DF8380044
:1015E000400710D42020012F8DF840000BDB3C4633
:1015F000012310AA6946504600F0A2FB002840F0E3
:101600008080641EF4D1DDF814B0BBF1000F11AC82
:101610000CD014F8011B0298D0470028029070D01B
:101620000B98401CBBF1010B0B90F2D130208DF8D0
:101630004000089C012C09DB012310AA6946504692
:1016400000F07EFB00285CD1641EF5D1DDF818B0F7
:10165000039CBBF1000F0CD014F8011B0298D0477B
:10166000002802904DD00B98401CBBF1010B0B9051
:10167000F2D130208DF84000099C012C09DB0123B8
:1016800010AA6946504600F05BFB002839D1641E61
:10169000F5D103980699DDF81CB04418BBF1000F92
:1016A0000BD014F8011B0298D047029048B30B9856
:1016B000401CBBF1010B0B90F3D130208DF84000A2
:1016C0000A9C012C08DB012310AA6946504600F051
:1016D00037FBB0B9641EF6D19DF8380040077FF59E
:1016E00064AD2020012F8DF84000FFF65EAD012390
:1016F00010AA6946504600F023FB10B97F1EF6D1B0
:1017000053E54FF0FF3021B0BDE8F08F622826D0BE
:1017100068281DD06A2808D06C2827D0712804D0EA
:10172000742823D07A280CD020E00868C01D20F04F
:1017300007000860D0E90023083008601946104609
:1017400070470A680A6052F8040B0A60002170476B
:101750000A680A6052F8040B0A6000B20BE00A68DB
:101760000A6052F8040B0A6040B204E00A680A609A
:1017700052F8040B0A60C11770472DE9F343054680
:1017800008462F696F2808BF082405D041F02001C2
:10179000782914BF0A2410243C26D5E900236428A4
:1017A00018BF69289046994606D100218B4203DA7A
:1017B000D8F1000869EB49090020814508BF804540
:1017C0000CD1286B50B9082C38D195F83800000797
:1017D00034D530203B2687F83B002FE0701E009068
:1017E0000646404649462246E31700F023FB02F135
:1017F0003000C0B23A2803DB9DF8041051390818B4
:10180000B855494640462246E31700F013FB804690
:1018100089460020814508BF804503D0E868B91992
:101820008842DBD3082C09D195F83800000705D58C
:10183000B85D302802D0761E3020B855B919E9605D
:10184000C6F13C00296BA861884208DA081A2862B0
:101850004FF6EF71288F08402887BDE8F3830029F1
:101860000ED595F8381001F01401102908D1696BD4
:101870006A69891A2A6A891A0E1A012EA8BF2E626D
:10188000BDE8F3832DE9F34F8BB0D0E90089006BFD
:10189000002801AF48BF062005D404BF41F0200056
:1018A000672802D101200B99086340F2FF720B9860
:1018B0004168C1F30A50904220D1080302BF0B983F
:1018C000006800280AD10B99032088619DF8300038
:1018D00061381A2858D30FF2AC4109E00B99032064
:1018E00088619DF8300061381A284AD30FF28C4184
:1018F0000B98C068032200F015FBFFE0012807DA0F
:101900000B9800F04AFB012802DB00230026ECE0E4
:101910000B9ADFF854B1526840F2FE3161F31E5267
:101920000B994A6040F2FE31401A00B247F29751DB
:1019300048434E4990FBF1F64046494600220023B9
:1019400000F04EFB36B238BF89F00049C6F10707F8
:10195000012F92461BDBF80707D552465B464046EF
:10196000494600F055FB8046894650465946524646
:101970005B467F1000F04CFB002F82468B46EAD17D
:1019800026E00FF2F431B3E70FF2F431B0E77F4213
:101990000024374D12E0F80707D552465B46204633
:1019A000294600F035FB04460D465046594652463E
:1019B0005B4600F02DFB7F1082468B46002FEAD15C
:1019C0004046494622462B4600F0F4FB80468946B5
:1019D0009DF830000B99DFF89CB0096B40F02005B2
:1019E000662D0CBF06F10A0006204718142FA8BF69
:1019F000132730208DF804000DF10504012F3BDB87
:101A00004046494600F018FD014604F1080204234F
:101A10004FF00A0CB1FBFCFC0CEB8C04A1EB440175
:101A2000303102F8011C0A21BCFBF1FE0EEB8E04E2
:101A3000ACEB440430345B1E714602F8024DE7D132
:101A4000083F012F02F10804D8DB00F015FD024623
:101A50000B464046494600F01DFD00225B4600F063
:101A6000D7FA80468946CBE700002440A0860100D3
:101A70000000F03F84D797410DF10500201A0DF1C9
:101A8000050702E0401E761E7F1C39783029F9D008
:101A9000662D08BF711C03D0652D0CBF01210021EC
:101AA0000B9A126B8B181BB29842B8BF03461BB23D
:101AB00019001AD4814204DA785C3528A8BF39208D
:101AC00000DA30207A18521E00E05B1E12F801493D
:101AD000491E8442F9D0392802D1785C401C7854E0
:101AE000002902D57F1E5B1C761C36B29DF8301093
:101AF0000B9800961BB23A4600F003F80DB0BDE813
:101B0000F08F2DE9F04786B006468A4690461D467E
:101B100000F09DFD012D406A376B90F8009002DACD
:101B200001250FF264284AF02000BDF938406628EC
:101B300008BF641C13D0672840F08A8014F1040F9A
:101B400075DBBC4273DA96F83800641C000702D4D7
:101B5000BD42B8BF2F4624B23F1B48BF002724B266
:101B6000F068B169012C23DA4A1C30234354012F59
:101B700003DA96F83800000703D5F06800F8029001
:101B8000521CE742B8BF7C4224B260427062E7193F
:101B9000AF42B261B8BF3D46F068B3692DB2F5619E
:101BA0002A464146184400F0BDF9781BB062B0E007
:101BB00022469542084416DA2A46414600F0B2F918
:101BC000B1696918601B012FB161706203DA96F880
:101BD0003800000705D5F06800F80190F069401C56
:101BE000F061B76295E0414600F09CF9B0692018B9
:101BF0002D1B012F03DA96F83810090703D5F16879
:101C000001F80090401CB0612DB2AF42B8BF3D4614
:101C1000F068B3692DB22A4608EB0401184400F0BD
:101C200081F9B0692818B061781B706271E0BD421B
:101C300004DA96F83810090758BF2F467F1E48BFB0
:101C40000027BAF1670F0CBF4FF0650A4FF0450A45
:101C5000B169F368481CB061012F18F8012B5A5480
:101C600003DA96F83810090717D5F168431CB361F9
:101C700001F80090012F10DB6D1E2DB2AF42B8BFEE
:101C80003D46F0682DB22A464146184400F04AF914
:101C9000B0692818B061781B7062F068B1690144BE
:101CA000200081F800A004D42B20487001F1020824
:101CB00004E02D224A7001F102086442002502AFBF
:101CC00008E00A22684600F0DBFC019807F8010BE7
:101CD0006D1C009C21B20129F3DA022D06DA4AF0CC
:101CE0002000652804BF302008F8010B4DB93020D2
:101CF00008F8010B07E06D1E02A8405D303008F8BF
:101D0000010B012DF7DAF068B1690844A8EB000077
:101D1000F06196F8380000F0140010280DD17069B9
:101D2000B1690818716A0818F1690818B16A0818C9
:101D3000716B8842BCBF081A306206B0BDE8F087FC
:101D4000F8B504460D4616461F46002077B116F832
:101D5000011BA868A047A86030B1E86A401CE8628F
:101D600000207F1EF3D1F2BD4FF0FF30F2BD000026
:101D7000686A6C747A4C00006E616E004E414E00D1
:101D8000696E6600494E4600300000000278C9B214
:101D90008A421AB11CBF10F8012FF9E718BF0020C2
:101DA0007047000000F10103810704D010F8011B07
:101DB00089B18107FAD10268B2F10131914311F082
:101DC000803F04BF50F8042FF6E710F8011B11B153
:101DD00010F8011BFBE7C01A70470000C9B2830767
:101DE00006D0521E22D310F8013B9942F7D11FE0D2
:101DF000083A13D302F1040241EA012141EA014108
:101E000050F8043B121F21BF4B40A3F1013C2CEAC8
:101E1000030C1CF0803FF3D0C9B2001F083210F849
:101E2000013B521E28BF91EA030FF8D818BF0120CA
:101E3000401E70471B4213D1094236D12AB1844655
:101E4000B0FBF2F002FB10C2704700F021BCFCD3E3
:101E50000022002370470B00020000210020704781
:101E6000904271EB030CF6D370B5B1FA81F4B3FA7A
:101E700083F52C1BA340C4F1200532FA05F6334349
:101E8000A2405FF00046E64002E05B085FEA3202F3
:101E9000841A71EB030524BF204629467641F4D30A
:101EA00002000B003000002170BD012ACFD970B5AF
:101EB000140C20D0B1FA81F4B2FA82F5C4F12004F6
:101EC0006419B4F12006D6D3B2405FF00044F44068
:101ED000002502E052085FEA3303C61A71EB020ED6
:101EE00024BF3046714664416D41F3D302000B00BC
:101EF0002000290070BD0C46B1FBF2F102FB114538
:101F00002D0445EA1045B5FBF2F402FB145580B2EE
:101F100040EA0545B5FBF2F002FB105240EA0440EE
:101F200070BD000062B38B0708D0521E11F8013B50
:101F300000F8013B00F024808B07F6D1830740F0C6
:101F4000208000BF103A07D330B4B1E83810103AFF
:101F5000A0E83810F9D230BC530724BFB1E808100C
:101F6000A0E8081044BF51F8043B40F8043BD207F6
:101F700024BF31F8022B20F8022B44BF0B780370EA
:101F80007047083A07D3B1E80810083A40F8043B14
:101F900040F804CBF7D25307E4E730B4436803F0CA
:101FA00000420121C3F313034360002B04BF036805
:101FB000002B08D10DE00368DD0F45EA44044460BE
:101FC0005B000360491E4468E302F4D5C4F31303C5
:101FD000436043681A434260084630BC70470000C3
:101FE0004FF4001C1CEB410F94BF1CEB430F09E0A6
:101FF00041EA030C50EA4C0C52EA0C0C03D2994211
:1020000008BF9042704714BF8B4282427047000065
:10201000B0B581EA030C0CF0004C40F2FF7515EAF4
:1020200011541DBF15EA1357AC42AF4239E0E41911
:1020300023EA455343F48013C90241F0004141EAC9
:10204000505EC7021100A7FB020200284FF00000FB
:10205000EEFB01204FF00001E3FB072118BF42F027
:102060000102401800214941E3FB0E01A4F5806400
:102070000F0302D252004041494154F101046CDD8A
:10208000470872F1004250F1000051EB0451A1F5F4
:1020900080115CBF41EA0C01B0BD4CEA0551002043
:1020A000B0BD05EA1357AC4214BFAF4241E050EA5D
:1020B000410E1CBF52EA430E02E061460020B0BD53
:1020C00024423C441BD15FEA070EF6D0090302BF4D
:1020D00001460020AEF1140EB1FA81F7AEEB070411
:1020E00001FA07FE0C37C7F1200100FA07F7C840D4
:1020F0004EEA000E23EA455343F48013A2E733F07F
:102100000043B3FA83F704BFB2FA82FE77440B3F71
:10211000E41BB7F1200E2FBF02FA0EF3BB40C7F14C
:10212000200E22FA0EFE38BF43EA0E03BA40641CAA
:1021300082E750EA410E14BF52EA430E6FF00001ED
:102140004FF4001717EB430F8ABF194617EB410FE7
:10215000B5E74CEA05510020B0BDD4F10104B4F15B
:1021600020070FDAC4F12007520828BF42F001020D
:1021700010FA07F501FA07F7E1BF2A43E0403843B8
:10218000E1400FE0352C98DCC7F1200452EA400210
:1021900020FA07F218BF42F0010231FA07F0A1401D
:1021A0000A43002172F1004250F1000051EB0C0192
:1021B000B0BD00002DE9F04140F2FF7581EA030C4B
:1021C0000CF0004C15EA11541DBF15EA1357AC4230
:1021D000AF42E9E0BC41C1F31301C3F31303801A1A
:1021E000994143F4801304D2641E40004941801891
:1021F0005941C90241EA5051B1FBF3F603FB1611F4
:10220000A2FB0675D7EBC020A94102D2761E80182A
:102210005941C90241EA5051B1FBF3FE03FB1E11C3
:10222000A2FB0E75D7EBC020A94103D2AEF1010E7F
:1022300080185941890241EA9051760546EA8E2E6E
:10224000B1FBF3F603FB1611A2FB0675D7EB80205A
:10225000A94102D2761E80185941C90241EA505163
:102260004EEA060EB1FBF3F603FB1611A2FB067550
:10227000D7EBC020A94102D2761E80185941C9026D
:1022800041EA5051B1FBF3F703FB1711A2FB0735ED
:10229000D3EBC020A94167F100070CBF004247F013
:1022A000010766F3D5274FEA1E31B80814F580649C
:1022B00014DDBD0775F1004250EB0E5051EB045197
:1022C00011F5801F5CBF41EA0C01BDE8F0814CF0C4
:1022D0007F6141F0E0410020BDE8F081BD076D085D
:1022E00040EA0E5041F48011D4F10104B4F120060B
:1022F0000ADAC4F120060200E04001FA06F3E140E8
:102300001843B24015430EE0342C14DCC6F120040F
:1023100045EA40056D0820FA06F2154321FA06F059
:10232000A1400D43002175F1004250F1000051EB36
:102330000C01BDE8F08100205FEA0C01BDE8F081EE
:10234000CFB992185B41B3FA83F704BFB2FA82F6B1
:10235000BF190B3FB7F120062FBF02FA06F3BB40AF
:10236000C7F1200622FA06F638BF3343BA401CB143
:10237000E419641E2FE77F4231F00041B1FA81F485
:1023800004BFB0FA80F6A4190B3CB4F120062FBFAD
:1023900000FA06F1A140C4F1200620FA06F638BF83
:1023A0003143A0403C1B16E7AC421ABF05EA135765
:1023B000AF4214E050EA41061CBF52EA4306BFE7B1
:1023C00050EA4107304661461CBF41EA0551BDE86D
:1023D000F08152EA430C08BFC143BDE8F081002000
:1023E0004FF4001616EB410F98BF16EB430F08BFD2
:1023F00016EB410F24BFC14305E016EB430F0CBFA2
:1024000061464CEA0551BDE8F0810000F446400DFC
:1024100040EAC120490006D200F014F8004248BF4B
:102420006FF00040604700F00DF84FF00041884227
:102430008CBF084640426047400D40EAC120490039
:1024400080F00D8040F00040490DA1F58061491CED
:1024500005D4D1F11F0154BFC840C01770474FF0D9
:1024600000007047010040F10980F446404200F04E
:1024700005F851F000416047010000BF09D0B0FAF3
:1024800080F18840C91CC1F58461090501EBD021A8
:1024900040057047F0B44FF0004591EA030F44BF88
:1024A0006B4000F001B900BF841A71EB030604D23F
:1024B0006E40001BB141121973414FF4001C1CEB1C
:1024C000410F34BF7CEB430684E00C0DA4EB1356A4
:1024D000362E7DDC012E43DC45EAC32343EA52530A
:1024E00012BFD20292025B08240545EAC12141EAEB
:1024F0005051D2EBC020994125D407D1B0FA80F6D3
:1025000010FA06F164D00020203608E0B1FA81F616
:10251000B140C6F1200220FA02F21143B0404FEA66
:10252000F474B4EB465434F001064FEA74040AD84C
:10253000D6F50016760D04F00044F04061FA06F27C
:102540005040F1404840C00A40EA415021F000416B
:1025500028BF5FEA500550F1000044EBD12137E07D
:1025600045EAC323DB0A45EAC121C90AB6F12005C1
:102570000EDD42EA0242120CC5F1200603FA06F60D
:10258000EB4042EA06056D42984161F100010DE021
:1025900062FA06F5F240554063FA06FC82EA0C0244
:1025A000F3405A406D42904161EB030111F4801FEA
:1025B00005D1641E620502D06D004041494121F4FD
:1025C0008011430875F1004350F1000041EB0451C4
:1025D000F0BC70471CEB410F15D223F0004352EAC8
:1025E00043060BD04FEA4C0CBCEB410F04D80C0D4A
:1025F000661E342EB7DDEBE7801A994150EA41069A
:1026000008BF0021E4E708BF1CEB430F28BF6FF0B1
:102610000001DDE780B5134800F0B0F80FF24C027E
:102620000FF244010160426241600FF24402826392
:1026300081600FF24402C160016141618161816288
:10264000C16201634163C2630164416401BD10B5AD
:10265000044800F093F80446206808B9FFF7DAFF51
:10266000204610BD341AFF1F000000002E0000009D
:1026700066616C736500000074727565000000008F
:1026800091FBF2F303FB1211C0E900317047000027
:1026900070470000F0B44FF0004591EA030C44BFCE
:1026A0006B40FFF701BF00BF841A71EB030603D232
:1026B000001BB141121973414FF4001C1CEB410F78
:1026C00034BF7CEB430443E00C0DA4EB1356352ED2
:1026D00050DC45EAC323DB0A45EAC121C912B6F141
:1026E00020050DDD63FA05F6EB4086EA030512428C
:1026F00018BF45F00105C01851F100010CD213E0DC
:1027000062FA06F5F2405540F3415A40B340F340B7
:102710005A408018594107D349085FEA30005FEA00
:10272000350528BF45F0010501F58011420875F116
:10273000004250F1000041EB0451F0BC4FF4001C8A
:102740001CEB410F38BF70470020090D0905704789
:102750001CEB410F10D252EA43060BD0BCEB410FE9
:1027600005D80C0DAB43661E342EB5DD02E0AB433D
:1027700080185941F0BC7047F0BC704770470000AA
:102780000100C9B2DFF8840A00684078081A0028FE
:102790000DD4DFF8780A0068C078C9B2DFF86C2A77
:1027A000126852788A1A904201DB012000E0002072
:1027B0007047DFF8581A09688978C0B2081ADFF83C
:1027C0004C1A096849784018C00070472DE9F84F45
:1027D0002DED028B84B004000D00160000270020B0
:1027E0008DF808005FF0000A5FF0000B5FF0000852
:1027F0009FEDAD8B5FF0000920002900C0B2C9B287
:10280000884205D28DF808402C009DF8080005008C
:10281000F6B2112E01DB10200600DFF8F009006887
:102820008470601BDFF8E4190968C870DFF8DC0900
:102830000068C0783100C9B2884204D3701EDFF846
:10284000CC190968C87001F0F8F882465FFA8AFA74
:10285000BAF1500F29D1DFF8B409006800780028D8
:102860000ED0DFF8AC090078002809D1DFF89C0908
:1028700000680078401EDFF89419096808704DE080
:10288000DFF8880900684078002847D0DFF8800921
:102890000078002842D1DFF8740900684078401EB3
:1028A000DFF868190968487038E05FFA8AFABAF107
:1028B000200F33D1DFF8540900680078DFF84C1995
:1028C0000968C97888420ED2DFF8440900780028E8
:1028D00009D1DFF8380900680078401CDFF82C19AE
:1028E000096808701AE0DFF8240900684078F6B239
:1028F000DFF818190968C978711A491E88420DDA7B
:10290000DFF80C090078002808D1DFF8000900681A
:102910004078401CDFF8F41809684870DFF8EC08CC
:1029200000684078DFF8E4180968097808188046DC
:10293000E4B2E000DFF8D41809684860EDB2E800BE
:10294000DFF8C81809688860DFF8C00800684068C8
:10295000DFF8B81809680978C900401A834686204C
:10296000009096A301225FFA8BFB5946002001F0EC
:10297000BBFCE4B2062C11D002200090DFF88C08DA
:102980000068406810F108037F22DFF880080068C3
:10299000406810F10801002001F000FDE4B2002CB5
:1029A0000FD002200090DFF8640800688068431EA2
:1029B0007F22DFF8580800688068411E002001F07F
:1029C000EDFCDFF8480800684068DFF84018096847
:1029D0008968401A0830FFF74FFDCDE90001F6B2D3
:1029E0003000FFF749FD02000B00DDE90001FFF7B1
:1029F000E1FB41EC180BDFF8140800684068C01DCB
:102A0000FFF73AFDCDE900015FFA88F818F10100FF
:102A1000FFF728FD53EC182BFFF7FAFA02000B0022
:102A2000DDE90001FFF736FDFFF706FD81460420D2
:102A300000904846FFF720FD53EC182BFFF72AFEC5
:102A4000FFF7FAFC03007F2249467C2001F036FDA7
:102A500001200090DFF8B40700684068C31D7F22A2
:102A6000DFF8A807006881687C2001F027FD0020BE
:102A7000070030003900C0B2C9B288420ED34046C8
:102A80003900C0B2C9B2884201D1012000E0002063
:102A9000DFF88017FFB2C8557F1CEAE704B0BDEC31
:102AA000028BBDE8F18F0000000000000000000074
:102AB000F8B504000D0000260027DFF85407007861
:102AC00080074AD4E4B2102C47DA2000C0B2FFF7E6
:102AD00057FE012841D12000C0B2FFF76AFE060070
:102AE000DFF83007E4B2005D012812D100F0A5FF45
:102AF0000700FFB2402F0CD1DFF81C070560002053
:102B0000DFF80817096808700020DFF80017096867
:102B10004870286800902AA301223100062001F0A5
:102B2000E3FB8720009025A301223100732001F0F0
:102B3000DBFBDFF8D80600684078DFF8D0160968BC
:102B400009780818E4B2A04207D1842000901BA3A2
:102B5000012238217A2001F0C7FBF1BD70B50400D5
:102B6000002564B2002C01D4260001E064B2664264
:102B70009FED140B002005002800310049B200B27F
:102B800009B2884218DA64B2002C09D453EC102B35
:102B90000020DFF88816FFF73BFA41EC100B09E044
:102BA00053EC102BDFF87806DFF87816FFF730FAD1
:102BB00041EC100B6D1CDFE770BD000025630000C9
:102BC00025730000000000000000F03F2DE9FF4FDA
:102BD00081B02DED088B86B0B0EE409AF0EE609A91
:102BE000B0EE418AF0EE618A00245FF0000B9FEDA9
:102BF0001BBB5FF0000A5FF000095FF000080025D2
:102C000000260027DFF808060078800700F17682AA
:102C100051EC190B53EC182BFFF7E2F90BD2B0EE85
:102C200049AAF0EE69AAB0EE489AF0EE689AB0EEC2
:102C30004A8AF0EE6A8A9DF83C00102880F25E8293
:102C40009DF8440000280DD001280ED003280FD095
:102C5000042810D0052811D013E000BF00000000A8
:102C600000000000129882460DE0129881460AE0AA
:102C70001298050007E01298060004E01298070079
:102C800001E0129880469DF83C00FFF779FD01288D
:102C900040F034829DF83C00FFF78BFD0400DFF824
:102CA00074059DF83C10405C012840F0AA8100F0BA
:102CB000C4FE83465FFA8BFBBBF1400F07D1DFF800
:102CC0005005007890F00100DFF844150870DFF837
:102CD00040050078C00740F19481DFF84C0590F979
:102CE0000000FFF73BFFB0EE40BAF0EE60BA5FFACB
:102CF0008BFBBBF1500F40F0A7809DF844000028EB
:102D000008D0012821D003283AD0042850D0052823
:102D100069D07EE09AF90000FFF7A4FB53EC1B2B6F
:102D2000FFF7B8FC02000B0051EC190B01F034FC6A
:102D30000AD89AF80000009051EC1B0BFFF766FBD5
:102D4000009940188AF800005BE199F80000FFF74D
:102D500093FB53EC1B2BFFF79DFC02000B0051EC87
:102D6000190B01F019FC0AD899F80000009051ECF9
:102D70001B0BFFF74BFB0099401889F8000040E15E
:102D80002868FFF76FFB53EC1B2BFFF783FC020057
:102D90000B0051EC190B01F0FFFB08D828680090DC
:102DA00051EC1B0BFFF732FB00994018286028E11B
:102DB000306801F009FC53EC1B2BFFF76BFC0200A1
:102DC0000B0051EC190B01F0E7FB0BD851EC1B0B7E
:102DD00001F022FC00EE100AD6ED000A30EE200AC7
:102DE00086ED000A0DE1D7E9002351EC1B0BFFF73C
:102DF00051FC02000B0051EC190B01F0CDFB07D880
:102E0000D7E9002351EC1B0BFFF744FCC7E9000195
:102E1000F7E0B8F90000FFF725FB53EC1B2BFFF799
:102E200039FC02000B0051EC190B01F0B5FB0AD87C
:102E3000B8F80000009051EC1B0BFFF7E7FA00997F
:102E40004018A8F80000DCE05FFA8BFBBBF1200F14
:102E500040F09B809DF84400002808D001281FD036
:102E6000032836D004284AD0052861D074E09AF9A6
:102E70000000FFF7F7FA53EC1B2BFFF70BFB53ECAB
:102E8000182B01F089FB0AD89AF80000009051EC49
:102E90001B0BFFF7BBFA0099081A8AF80000B0E094
:102EA00099F80000FFF7E8FA53EC1B2BFFF7F2FA52
:102EB00053EC182B01F070FB0AD899F80000009031
:102EC00051EC1B0BFFF7A2FA0099081A89F80000D1
:102ED00097E02868FFF7C6FA53EC1B2BFFF7DAFAE6
:102EE00053EC182B01F058FB08D82868009051ECDF
:102EF0001B0BFFF78BFA0099081A286081E03068F5
:102F000001F062FB53EC1B2BFFF7C4FA53EC182BB8
:102F100001F042FB0BD851EC1B0B01F07DFB00EEE6
:102F2000100AD6ED000A30EEC00A86ED000A68E00D
:102F3000D7E9000153EC1B2BFFF7ACFA53EC182B2D
:102F400001F02AFB07D8D7E9000153EC1B2BFFF750
:102F5000A1FAC7E9000154E0B8F90000FFF782FACE
:102F600053EC1B2BFFF796FA53EC182B01F014FBD4
:102F70000AD8B8F80000009051EC1B0BFFF746FA96
:102F80000099081AA8F800003BE05FFA8BFBBBF140
:102F9000300F0DD1DFF8900290F90000042830DAEC
:102FA000DFF884020078401CDFF87C12087028E00B
:102FB0005FFA8BFBBBF1100F23D19DF8440004286E
:102FC00003D09DF8440005280ED1DFF85C0290F98B
:102FD000000010F1020F14DBDFF84C020078401EF5
:102FE000DFF8441208700CE0DFF83C0290F90000B2
:102FF000012806DBDFF830020078401EDFF82812D7
:1030000008709DF84400002808D0012810D003283B
:1030100018D004281FD0052829D033E09AF90000E1
:10302000009075A301222100442001F05DF932E0F7
:1030300099F80000009070A301222100442001F0C3
:1030400053F928E0286800906BA301222100442056
:1030500001F04AF91FE0306801F0B6FACDE900014D
:1030600066A301222100442001F03EF913E097ED10
:10307000000B8DED000B61A301222100442001F023
:1030800033F908E0B8F9000000905BA301222100A9
:10309000442001F029F95E480078C00713D55D4847
:1030A0009DF83C10405C01280DD1832004908DEDEB
:1030B00002BB82200090DFF87431FE222100002044
:1030C00001F012F907E0109800904DA301222100B1
:1030D000062001F009F94D48006840784B4909681D
:1030E000097808189DF83C10884207D18420009088
:1030F00044A3012238217A2001F0F6F806B0BDEC95
:10310000088B05B0BDE8F08F0CB4F8B504000D00D5
:103110000027DFF81C010078800716D4E4B2102CD9
:1031200013DA2000C0B2FFF72BFB01280DD12000DD
:10313000C0B2FFF73EFB070006A8060000962B0072
:1031400001223900062000F0E7FDF1BC5DF80CFB20
:103150002DE9F84304000D00160000275FF0000879
:103160005FF000092A480078800743D4E4B2102CAD
:1031700040DA2000C0B2FFF703FB01283AD120005B
:10318000C0B2FFF716FB07002248E4B2005D012839
:1031900009D100F052FC80465FFA88F8B8F1400F80
:1031A00001D101208146009515A301223900062096
:1031B00001F09AF814A301223900442001F094F898
:1031C0005FFA89F9B9F1010F02D100208146B047B9
:1031D0000E48006840780D49096809780818E4B27B
:1031E000A04207D18420009006A3012238217A2032
:1031F00001F07AF8BDE8F18325640000256600003F
:1032000025730000256300002D3E00001411FF1FF0
:10321000301AFF1FBC19FF1FA419FF1F0000244014
:103220009A9999999999B93F311AFF1FCC84000056
:10323000301AFF1F80B5DFF88408DFF884180968AA
:103240000160DFF87808DFF87C1809684160DFF872
:103250006C08DFF8741809688160DFF86008DFF82F
:103260006C180968C160DFF85408DFF86418096851
:103270000161DFF84808DFF85C1809684161DFF890
:103280003C08DFF8541809688161DFF83008DFF87E
:103290004C180968C161DFF8A80790ED000AB8EE84
:1032A000C00ADFF8180880ED080ADFF80C0890ED76
:1032B000000AB8EEC00ADFF8040880ED090ADFF85A
:1032C000FC07DFF81C1809698162DFF8F007DFF8F6
:1032D00010184969C162DFF8E407DFF8041889694A
:1032E0000163DFF8D807DFF8FC1709694163DFF8ED
:1032F000CC07DFF8F01749698163DFF8C007DFF812
:10330000E4178969C163DFF8E00790ED000AB8EEC1
:10331000C00ADFF8A80780ED100ADFF8D00790EDAB
:10332000000AB8EEC00ADFF8940780ED110ADFF852
:10333000C00790ED000AB8EEC00ADFF8800780ED04
:10334000120ADFF8AC0790ED010AB8EEC00ADFF808
:103350006C0780ED130ADFF8980790ED020AB8EECB
:10336000C00ADFF8580780ED140ADFF8840790EDF3
:10337000030AB8EEC00ADFF8440780ED150ADFF84B
:10338000700790ED040AB8EEC00ADFF8300780ED50
:10339000160ADFF85C0790ED050AB8EEC00ADFF800
:1033A0001C0780ED170ADFF8480790ED060AB8EE13
:1033B000C00ADFF8080780ED180ADFF8340790ED3F
:1033C000070AB8EEC00ADFF8F40680ED190ADFF844
:1033D000200790ED080AB8EEC00ADFF8E00680ED9D
:1033E0001A0ADFF80C0790ED090AB8EEC00ADFF8F8
:1033F000CC0680ED1B0ADFF8F80690ED0A0AB8EE5D
:10340000C00ADFF8B80680ED1C0ADFF8E40690ED8C
:103410000B0AB8EEC00ADFF8A40680ED1D0ADFF83B
:10342000D00690ED0C0AB8EEC00ADFF8900680EDE9
:103430001E0ADFF8BC0690ED0D0AB8EEC00ADFF8F0
:103440007C0680ED1F0ADFF8A80690ED0E0AB8EEA4
:10345000C00ADFF8680680ED200ADFF8940690EDD8
:103460000F0AB8EEC00ADFF8540680ED210ADFF833
:10347000800690ED100AB8EEC00ADFF8400680ED35
:10348000220ADFF86C0690ED110AB8EEC00ADFF8E8
:103490002C0680ED230A01F020F9DFF858160320EE
:1034A000FFF732FE4FF4FA7001F051F90020DFF817
:1034B0004816087001BD0020DFF840160860DFF8EC
:1034C000400600210160DFF83C06002101607047E2
:1034D00080B5DFF834060068DFF830160860DFF8E2
:1034E00030060068DFF824164860DFF82806006818
:1034F000DFF818168860DFF820060068DFF80C1681
:10350000C860DFF818060068DFF800160861DFF809
:1035100010060068DFF8F4154861DFF80806006857
:10352000DFF8E8158861DFF800060068DFF8DC15D1
:10353000C861DFF8F8150920FFF7E6FD4FF4FA70CF
:1035400001F005F901BDDFF8E8050068DFF8A01516
:10355000DFF8E0251268520001EB820141F8080C07
:10356000DFF8D4050068DFF88815DFF8C825126891
:10357000520001EB820141F8040C7047000000008A
:1035800080B5102200210620FFF720F9DFF8700532
:10359000006801F019F802000B00DFF8A015002008
:1035A000FFF7B2FDDFF898150120FFF781FADFF889
:1035B00094150220FFF77CFADFF88C25DFF88C15D4
:1035C0000320FFF7C5FDDFF868050268DFF8801506
:1035D0000420FFF799FDDFF860050268DFF8741535
:1035E0000520FFF791FDDFF870359FED691B9FED1A
:1035F0006A0B0222DFF864150620FFF7E7FADFF80E
:10360000602567A10720FFF7A3FDDFF858359FED80
:10361000651B9FED660B0222DFF84C150820FFF7B3
:10362000D5FADFF8C4349FED631B9FED640B0322D2
:10363000DFF838150920FFF7C9FADFF8B0349FED3D
:103640005D1B9FED5E0B0322DFF824150A20FFF7B8
:10365000BDFADFF88C04006800F0B6FF02000B0032
:10366000DFF810150B20FFF74FFDDFF87804006836
:1036700000F0AAFF02000B00DFF8FC140C20FFF79B
:1036800043FDDFF8F8140D20FFF712FA01BD00002A
:1036900000B585B0102200210620FFF797F8DFF86B
:1036A00098040368DFF888040268DFF8D414002067
:1036B000FFF72AFDDFF87C349FED701B9FED360B82
:1036C0000222DFF8C0140120FFF780FADFF8B824E7
:1036D000DFF8B8140220FFF73BFDDFF8140440695F
:1036E0000390DFF80C0400690290DFF80404C0685E
:1036F0000190DFF8FC0380680090DFF8F403436872
:10370000DFF8EC030268DFF888140420FFF7FCFC04
:10371000DFF8DC03C06A0390DFF8D403806A02900C
:10372000DFF8CC03406A0190DFF8C403006A009020
:10373000DFF8BC03C369DFF8B8038269DFF850140F
:103740000520FFF7E1FCDFF8A803406C0390DFF8E9
:10375000A003006C0290DFF89803C06B0190DFF8C3
:103760009003806B0090DFF88803436BDFF88003E1
:10377000026BDFF820140620FFF7C6FCDFF8C82331
:10378000DFF8C8130720FFF7E3FC05B000BD000019
:103790000000000000002040000000000000F03F9A
:1037A00052756E00000000000000004000000000A4
:1037B00000000000000000000088C340000000007E
:1037C0000088C3C080B5102200210620FEF7FEFF4E
:1037D000CD4B9FED921B9FED930B022269A1002020
:1037E000FFF7F4F9CA4B9FED8D1B9FED8E0B022264
:1037F00065A10120FFF7EAF9C64B9FED881B9FEDFD
:10380000890B022284A10220FFF7E0F9C24B9FED51
:10381000831B9FED840B02228AA10320FFF7D6F9B8
:10382000BE4B9FED7E1B9FED7F0B022286A10420E5
:10383000FFF7CCF9BA4B9FED791B9FED7A0B022273
:1038400082A10520FFF7C2F9B64B9FED741B9FEDD7
:10385000750B02227EA10620FFF7B8F9B24B9FED4F
:103860006F1B9FED700B022279A10720FFF7AEF9C5
:10387000C94ACA490820FFF76BFC01BD00000000DF
:103880000000224080B5102200210620FEF79EFF96
:10389000C34B9FED701B9FED710B0422C1490120AA
:1038A000FFF794F9C04B9FED6B1B9FED6C0B04224F
:1038B000BE490220FFF78AF9BD4B9FED661B9FEDC5
:1038C000670B0422BB490320FFF780F9BA4B9FED39
:1038D000611B9FED620B0422B8490420FFF776F9C3
:1038E000B74B9FED5C1B9FED5D0B0422B549052096
:1038F000FFF76CF9B44B9FED571B9FED580B04225B
:10390000B2490620FFF762F901BD70B50524002514
:10391000AF4E2A002100300000F030FF0020AC49FB
:1039200048710020AA49887170BDA949A84A9279B6
:103930008854A7498979491CA54A9171A449897974
:10394000052902DB0021A24A91717047A048407905
:103950009F4A9279904201D1002012E09C489C4AF3
:103960005279805C01009A484079401C984A507115
:1039700097484079052802DB0020954A50710800DD
:10398000C0B27047417800004159000070B582B064
:103990000400002500262068FEF704FA001D062119
:1039A00010FB01F00600F6B2D6F1800040100500D1
:1039B00020680090874B01223821EDB2A81C00F04E
:1039C00093FC012000903923EDB2AA1C3921062076
:1039D00000F0E4FC01200090392379223921F6B26D
:1039E00056FA85F0801E00F0D9FC606800280BD0E4
:1039F00079480078002807D1852000902DA3012266
:103A00003821002000F070FC73BD10B5040073482D
:103A10000460FFF77AFF10BD42780000000000004C
:103A200000001040000000000000000010B504007D
:103A30002000C0B2FFF779FF10BD694800787047D9
:103A4000B014FF1F42790000437800004379000062
:103A5000447800000000000000409F40000000008B
:103A600000409FC080B5FFF771FF5D4908705B485B
:103A70000068FFF78BFF5948006880688047584806
:103A80000078602815D154480078002811D1534897
:103A90000068406800280CD05048006840684F49D2
:103AA000086000204F490968087000204D490968E6
:103AB000487001BD25630000B414FF1FD813FF1F19
:103AC000D410FF1FCC10FF1FD010FF1F1C11FF1FB1
:103AD0001811FF1F0005FF1F0405FF1FD413FF1F50
:103AE0006013FF1F8813FF1FC414FF1FC814FF1F9C
:103AF000D814FF1FD48300002E1AFF1FCC13FF1F02
:103B0000D014FF1FCC14FF1F8419FF1FE004FF1FF8
:103B10008819FF1F8C19FF1F9019FF1F9419FF1F91
:103B20009819FF1F9C19FF1FA019FF1F6484000034
:103B3000A814FF1FD810FF1FAC14FF1FE083000064
:103B40000011FF1FF410FF1F35320000EC8300004E
:103B5000F8830000048400000805FF1F6C84000047
:103B6000B7340000C014FF1F1084000074840000EC
:103B70007C8400001C84000028840000E810FF1FE3
:103B8000AC830000348400004735000084840000CA
:103B90000483000018830000D13400008C840000EE
:103BA0007013FF1F948400007413FF1F9C84000097
:103BB0007813FF1FA48400009813FF1FAC8400003B
:103BC0009C13FF1FB4840000A013FF1FBC840000DF
:103BD000A819FF1FC4840000301AFF1FA419FF1F7B
:103BE0002F1AFF1F1411FF1F30B4C9B20A00002A98
:103BF000012A01D9FE3A06D1DFF8E426D2E90045D0
:103C0000C0E9004505E0DFF8D826D2E90045C0E963
:103C1000004530BC70472DE9FE4F04000D00160032
:103C20005FF00109A2469DF808106846FFF7DCFF27
:103C30009DF808009DF8001008408146203E9DF93F
:103C40000200401E83464FFA8BFBBBF1000F3BD4B2
:103C50000198F6B29DF8021001FB06F108444FFAF4
:103C60008BFB10F80B000700002080465FFA88F8F5
:103C7000B8F1080F25DA380606D54A46D2B229002F
:103C8000200000F0D2FD0CE05FFA89F9B9F1000FD5
:103C900001D1012200E00022D2B22900200000F070
:103CA000C4FD7F00641C5FFA8AFAB4EB0A0008289E
:103CB00004D15FFA8AFA54466D1C02E018F101083B
:103CC000D4E7BBF1010BBEE7BDE8F78F2DE9FC415E
:103CD00004000D0016001F005FF000083900C9B293
:103CE0006846FFF781FF5FFA88F816F80800002899
:103CF00010D03B00DBB25FFA88F816F808202900E4
:103D00002000FFF788FF9DF8010054FA80F418F1B5
:103D10000108E8E7BDE8F3812DE9F74F2DED028BAF
:103D20008EB01D001C9F109E00208DF80F000320F8
:103D30008DF80A000120ADF816009DF8481007A87C
:103D4000FFF752FF0020ADF81800BDF91800ADF8DC
:103D50001400BDF9140010F1010F00F0BC8295F9B8
:103D600000008DF808006D1C9DF90800002800F087
:103D7000B2829DF9080025280ED09DF848309DF8A4
:103D800008000200D2B21199F6B23000FFF743FFEB
:103D90009DF81D00861996E200208DF809009DF817
:103DA00009008DF80B009FED0D1BB0EE418AF0EE7F
:103DB000618A00208DF80E0095F900008DF808004A
:103DC0006D1C9DF9080030280CD101208DF80900E8
:103DD00095F900008DF808006D1C1CE00000000043
:103DE000000000009DF908002D2808D102208DF860
:103DF000090095F900008DF808006D1C0BE09DF995
:103E000008002E2807D101208DF80F0095F9000039
:103E10008DF808006D1C9DF90800302827DB9DF9FE
:103E200008003A2823DA9DF80F0001280FD19DF8E9
:103E30000E000A219DF9082001FB002030388DF882
:103E40000E0095F900008DF808006D1CE3E79DF861
:103E50000B000A219DF9082001FB002030388DF865
:103E60000B0095F900008DF808006D1CD3E79DF854
:103E70000F0001280BD19DF80E00082803DB072056
:103E80008DF80A0003E09DF80E008DF80A009DF9F8
:103E900008006C2803D09DF908004C280AD19DF831
:103EA000090050F004008DF8090095F900008DF824
:103EB00008006D1C9DF90800002800F00C829DF997
:103EC000080081469DF90800612805DB9DF908007E
:103ED0007B2801DAB9F120094FFA89F948464228CE
:103EE00000F0308143286BD0442800F0338146280D
:103EF00075D04F2800F02A81532806D0552800F0AD
:103F00002981582800F02A812CE138683F1D09904A
:103F10000020804609985FFA88F810F90800002808
:103F200002D018F10108F5E75FFA88F8ADF81A80B9
:103F3000002083469DF80900800715D4404610F103
:103F400001089DF80B10C0B288420DD29DF8483090
:103F500020221199F6B23000FFF75DFE1BF1010B34
:103F60009DF81D008619E9E79DF84830099A1199D6
:103F7000F6B23000FFF7AAFE9DF81D00BDF91A1039
:103F8000484350FA86F6BDF81A0010EB0B0B40467A
:103F900010F101089DF80B10C0B288420DD29DF8B7
:103FA000483020221199F6B23000FFF734FE1BF1A1
:103FB000010B9DF81D008619E9E7ADF814B082E108
:103FC00038683F1D9DF848300200D2B21199F6B210
:103FD0003000FFF720FE9DF81D00861973E1F81DE3
:103FE00030F0070797ED000B0837B0EE408AF0EE8F
:103FF000608A51EC180B00220023FDF7F1FF0DD26F
:104000009DF80A0050F008008DF80A0053EC182BB8
:104010000020B449FDF7FCFF41EC180B51EC180BE4
:10402000FEF7F4F9ADF810009DF80A0010F0070053
:104030008DF80C009DF80C00401E00280CD4BDF833
:1040400016000A2110FB01F0ADF816009DF80C00D7
:10405000401E8DF80C00EDE7BDF91600FEF702FAE0
:10406000CDE90001BDF91000FEF7FCF902000B00DC
:1040700051EC180BFEF70EFADDE90023FDF7C8FF3F
:10408000FEF7C4F9ADF81200002004009DF80A0004
:1040900010F007008DF80C009DF80C00411E8DF803
:1040A0000C10C0B200281FD0BDF91200002815D096
:1040B000BDF912000A2190FBF1F201FB12008146CA
:1040C000BDF912000A2190FBF1F0ADF8120019F1D0
:1040D00030000AA9E4B20855641CDDE730200AA9C3
:1040E000E4B20855641CD7E72E200AA9E4B20855AB
:1040F000641CBDF910000A2190FBF1F201FB1200D3
:104100008146BDF910000A2190FBF1F0ADF81000D6
:1041100019F130000AA9E4B20855641CBDF9100079
:10412000002802D0E4B2102CE3D39DF80A00000767
:1041300004D52D200AA9E4B20855641C00208DF88E
:104140000F0075E002208DF80D001DE008208DF8AD
:104150000D0019E00A208DF80D0015E010208DF8F3
:104160000D0011E09DF848309DF808000200D2B221
:104170001199F6B23000FFF74EFD9DF81D0086192B
:104180000120ADF814009EE09DF80900400703D51A
:10419000D7F800A03F1D0BE04FFA89F9B9F1440FA1
:1041A00003D1D7F800A03F1D02E0D7F800A03F1DC3
:1041B0004FFA89F9B9F1440F0AD1BAF1000F07D5C6
:1041C000DAF1000A9DF8090050F008008DF80900A6
:1041D000002004009DF80D00BAFBF0F100FB11A0D7
:1041E00081469DF80D00BAFBF0FA4FFA89F9B9F152
:1041F0000A0F08DB9DF90800782801D1272000E08C
:10420000072010EB090919F130000AA9E4B208559A
:10421000641CBAF1000F02D0E4B2102CDAD39DF87E
:104220000900000704D52D200AA9E4B20855641C32
:10423000A0469DF80900C00702D55FF0300901E0F3
:104240005FF020099DF80900800714D4404610F162
:1042500001089DF80B10C0B288420CD29DF848307E
:104260004A46D2B21199F6B23000FFF7D4FC9DF85D
:104270001D008619E6E7641E9DF848300AA8E4B2DE
:10428000005D0200D2B21199F6B23000FFF7C3FC14
:104290009DF81D008619E4B2002CECD1404610F1C7
:1042A00001089DF80B10C0B288420CD29DF848302E
:1042B0004A46D2B21199F6B23000FFF7ACFC9DF835
:1042C0001D008619EAE7BDF81800BDF8141008189B
:1042D000ADF818003DE50EB0BDEC028BBDE8F78FE0
:1042E0000C11FF1F0000F0BF2DE9F04182B0040067
:1042F0000D0016001F0008A88046CDF800803B0086
:104300003200D2B229002000FFF706FDBDE8F3819C
:10431000F8B504000D0016001F00F6B216F00300F9
:10432000C0B2002804D002280AD003281AD02DE0F9
:1043300000222DB2290024B2200000F076FA2CE0F1
:10434000F80707D501222DB2290024B2200000F081
:104350006CFA06E000222DB2290024B2200000F001
:1043600064FA1AE017F00300022807D301222DB2E5
:10437000290024B2200000F058FA06E000222DB2F5
:10438000290024B2200000F050FA06E001222DB2EC
:10439000290024B2200000F048FAF1BD2DE9F74FC2
:1043A00082B01D000E9C04980299461A03982F1A99
:1043B00036B2012E01DB012000E00020C0B2400037
:1043C000401EADF802003FB2012F01DB012000E0EA
:1043D0000020C0B24000401EADF80000DDF808909B
:1043E000DDF80CA05FF0000B0020804636B2002EF6
:1043F00002D536B27642FFE73FB2002F02D53FB278
:104400007F42FFE73800310000B209B2884229DA62
:10441000029881460FFA89F90498BDF9021000FA52
:1044200081F0814547D01BF1010B5B462200D2B2DF
:10443000514609B2484600B2FFF76AFF17EB080879
:104440000FFA88F85FEA480036B2B04205DBBDF8E3
:10445000000010EB0A0AB8EB0608BDF8020010EBEA
:104460000909D7E7039882460FFA8AFABDF90000D6
:1044700005FA80F082451ED01BF1010B5B4622003D
:10448000D2B2514609B2484600B2FFF741FF16EBDF
:1044900008080FFA88F85FEA48003FB2B84205DB27
:1044A000BDF8020010EB0909B8EB0708BDF80000E1
:1044B00010EB0A0AD8E705B0BDE8F08F2DE9F04708
:1044C00082B005000E00170098460A9C5FF00009B4
:1044D0005FF0000A600702D4E4B2002C36D1AF428C
:1044E00002D2A9463D004F46B04502D2B1464646EB
:1044F000C846E4B2002C02D10020824601E001202F
:104500008246464509D15046C0B2009033003A0079
:1045100031002800FFF742FF3CE0BD4209D1504680
:10452000C0B2009043462A0031002800FFF736FF52
:1045300030E0B0452ED35046C0B2009033003A0070
:1045400031002800FFF72AFF761CF2E72000C0B2F6
:10455000009043462A0031002800FFF71FFF20008B
:10456000C0B2009043463A0041462800FFF716FFCC
:104570002000C0B2009043463A0031003800FFF7F7
:104580000DFF2000C0B2009033003A003100280037
:10459000FFF704FFBDE8F3874FF4001C1CEB410F4D
:1045A00094BF1CEB430F09E041EA030C50EA4C0CAA
:1045B00052EA0C0C03D28B4208BF8242704714BFF0
:1045C00099429042704700005FF0FF0C1CEAD05106
:1045D00014BF614506E0C110400721F0E04101F140
:1045E0006051704779B900F0004100020AD0B0FA7A
:1045F00080FC00FA0CF001F16051A1EB0C5101EBD1
:10460000D0214005704741020CBF40F4E0016FF03B
:1046100000010020704700004FEAF17CBCF1E04C43
:104620002CBFBCF5001F11E05FEA4C0C34BFBCF19D
:104630007F5F2EE05FEA9C0C4FEA0C1C4FEA3C0CBB
:10464000C10071F100414CEB50707047C90241EA62
:104650005051C00218BF41F0010141F000414FEA42
:104660006C50C0F10900212810D240EACC7CCCF17A
:10467000200C11FA0CF070F10040CCF1200C21FA62
:104680000CF00CF0004C40EB0C0070474FEACC7083
:104690007047490011F5001F04D84FEACC10FF30D5
:1046A000C0057047C8177047DFF800F0C511FF1F3D
:1046B000DFF800F02112FF1F0021080080B232282D
:1046C0000ADA80B2410111F5FE210968114A80B26F
:1046D00042F82010401CF1E7704710B57F20FFF72B
:1046E000E3FF322000F033F800200400A4B2322CA3
:1046F0000FDA0848A4B250F824200023A4B26101C4
:1047000089B27F20FFF7D4FF142000F020F8641C4A
:10471000ECE710BDD813FF1F10B50400002C15D016
:10472000B4F1807F03D329210F4800F0AFF80020B7
:104730000E4908600E48046000200E4908600520FC
:104740000A49086009480068C003FBD510BD10B5D0
:1047500004002000441E002804D007480068FFF72A
:10476000DBFFF6E710BD0000707F000010E000E006
:1047700014E000E018E000E0CC19FF1F62F30F2204
:1047800062F31F42401810F0030308D0C91A1FD368
:10479000DB0748BF00F8012D28BF20F8022D1300C9
:1047A00030B414461546103928BF20E93C00FAD829
:1047B000490728BF20E90C0048BF40F8042D8900B4
:1047C00028BF20F8022D48BF00F8012D30BC7047EB
:1047D000C91818BF00F8012DCB0728BF00F8012D1C
:1047E00070470000F8B5040000F090F84FF48065C1
:1047F0000026254F320029003800FFF7BFFF2000B8
:10480000FFF703F9F1BD80B51F4800F083F800F011
:1048100001F801BD70B54FF4806400251A4E2A00DE
:1048200021003000FFF7AAFF70BDF0B400258028FA
:1048300001D2402900D325E0CE08D6F10706330087
:1048400011F0070634000126D4F10707BE403500F9
:10485000D2B2002A0BD00C4E06EBC006DBB20A4FD8
:1048600007EBC007DBB2FF5C2F43F7540AE0064EAC
:1048700006EBC006DBB2044F07EBC007DBB2FF5C00
:10488000AF43F754F0BC70478415FF1F38B50400E0
:104890000D00002000F044F82A002100174800F025
:1048A00077F8002000F059F84FF47A70FFF74FFFC7
:1048B000F2E738B504000D00210049B2012000F0F4
:1048C0009DF9200032BD10B50D480468012000F0AC
:1048D00027F8012000F041F80A48E4B20F2101FB5B
:1048E00004F100EB0102E4B22100074800F050F8A7
:1048F0004FF47A70FFF72BFFEBE7000070810000A8
:1049000004ED00E01805FF1F347F000080B500F0C3
:1049100042FA01BD10B50400200000F046FB10BDB6
:1049200010B5040064B2042C07DA012201211748F3
:1049300064B2005D00F07EFB0EE004200400200065
:10494000441E40B2002807D0012201210F4864B262
:10495000005D00F06FFBF2E710BD10B5040064B21B
:10496000042C05DA094864B2005D00F0F3FB0CE0AA
:10497000042004002000441E40B2002805D0034853
:1049800064B2005D00F0E6FBF4E710BD2811FF1FE4
:104990000EB400B582B003A9009102466B46012116
:1049A000034878440A30FCF7E7FB06BC5DF810FBCF
:1049B000B9380000012110F01F029140DFF8982261
:1049C00040B2430942F8231070472DE9F843040030
:1049D0000D0064B2002C08D0022C2CD018D3042C6B
:1049E0004FD03BD3052C5FD071E0DFF87002006838
:1049F00050F48060DFF8641208604FF44071662064
:104A000000F0E6FB4FF44071672000F0E1FB5EE050
:104A1000DFF84802006850F40060DFF840120860D8
:104A20004FF44071432000F0D3FB4FF44071442019
:104A300000F0CEFB4BE0DFF82402006850F4805019
:104A4000DFF8181208604FF44071632000F0C0FBDB
:104A50004FF44071622000F0BBFB38E0DFF8FC014E
:104A6000006850F40050DFF8F41108604FF4407112
:104A7000852000F0ADFB4FF44071842000F0A8FBCE
:104A800025E0DFF8DC01006850F48060DFF8D01129
:104A900008604FF440714E2000F09AFB4FF44071D3
:104AA0004F2000F095FB12E0DFF8B401006850F4ED
:104AB0000060DFF8AC1108604FF44071892000F00D
:104AC00087FB4FF44071882000F082FBFFE7DFF89E
:104AD000940164B250F82400C07810F0F300DFF8BD
:104AE000841164B251F82410C870DFF8780164B200
:104AF00050F824008078DFF86C1164B251F824106B
:104B0000887064B2002C02D064B2012C07D1DFF8A7
:104B1000580100684FF47A714843814606E0DFF897
:104B20004C0100684FF47A71484381462801B9FB73
:104B3000F0F00600B6B2B6F5005F02DB41F6FF709A
:104B40000600B9FBF5F0B6B2B0EB06100700BFB235
:104B5000202F03DBDC214648FFF798FE414864B272
:104B600050F82400007810F0E0008046C6F30420DE
:104B700050EA08003B4964B251F8241008703948E3
:104B800064B250F824004670364864B250F82400ED
:104B9000807A10F0E000804617F01F0050EA08000D
:104BA000304964B251F8241088722E4864B250F82B
:104BB0002400007C50F088002A4964B251F8241087
:104BC0000874284864B250F82400C07850F00C00F3
:104BD000244964B251F82410C870BDE8F183214A19
:104BE00040B252F8202012799206F8D51D4A40B200
:104BF00052F8202092F907200A707047194A40B2F3
:104C000052F8202012791206F8D5164A40B252F80E
:104C10002020D17170470100124849B250F821009C
:104C2000807D002801D0012000E00020704710B5F1
:104C300004000C4864B250F82400C07850F0200002
:104C4000084964B251F82410C87064B260002D3075
:104C500040B2FFF7AFFE10BD00E100E03480044039
:104C600028800440B40CFF1FCC19FF1FD419FF1F6C
:104C7000C480000008210122DFF894331A6000226A
:104C8000DFF890331A600A00511ED2B2002A15D004
:104C9000020604D50122DFF880331A6003E0002207
:104CA000DFF874331A600122DFF868331A6000BF3E
:104CB0000022DFF860331A604000E4E7704700002C
:104CC00008210022DFF848331A600022DFF844335D
:104CD0001A600A00511ED2B2002A15D0020604D56D
:104CE0000122DFF834331A6003E00022DFF82833B2
:104CF0001A600122DFF81C331A6000BF0022DFF8BF
:104D000014331A604000E4E7704738B504000D0022
:104D1000B5F15000C0B2FFF7D3FF2000C0B20009C8
:104D200050F01000C0B2FFF7CBFF14F00F0050F0AE
:104D30000100C0B2FFF7C4FF31BD70B50400002010
:104D40000500EDB2082D17DAB5F15000C0B2FFF73B
:104D5000B7FF0120FFF7B4FF1020FFF7B1FF0020DD
:104D60000600F6B2802E05DA2000C0B2FFF782FFFF
:104D7000761CF6E76D1CE4E770BD80B2002809D010
:104D80004FF47A5211000A00511E92B2002AFAD151
:104D9000401EF2E7704780B501220121362000F065
:104DA00049F901220121352000F044F901220121B5
:104DB000342000F03FF901220121332000F03AF9BC
:104DC000012201214F2000F035F90120DFF84412C3
:104DD00008600020DFF8441208600020DFF840126D
:104DE00008603220FFF7C9FF0120DFF834120860A5
:104DF000AE20FFF765FF0020FFF762FF1020FFF7EE
:104E00005FFF4020FFF75CFF8120FFF759FFCF20B5
:104E1000FFF756FFA120FFF753FFC820FFF750FF11
:104E2000A620FFF74DFFA820FFF74AFF3F20FFF71E
:104E300047FFD320FFF744FF0020FFF741FFD520B5
:104E4000FFF73EFF8020FFF73BFFD920FFF738FF39
:104E5000F120FFF735FFDA20FFF732FF1220FFF7CE
:104E60002FFFDB20FFF72CFF4020FFF729FF20203A
:104E7000FFF726FF0220FFF723FF8D20FFF720FF1B
:104E80001420FFF71DFFA420FFF71AFFA620FFF74D
:104E900017FFAF20FFF714FF0020FFF74EFF0021A0
:104EA0000020FFF732FF01BD2DE9F84304000D009B
:104EB000160000275FF000085FF000095FFA89F92B
:104EC00016F8090000282CD05FFA89F916F80900B5
:104ED00020380700E4B27F2C02DB002004006D1CA8
:104EE0002900C9B22000C0B2FFF70FFF00208046A2
:104EF0005FFA88F8B8F1060F0FDADFF82801FFB281
:104F0000062101FB07F108445FFA88F810F8080051
:104F1000FFF7B0FE18F10108EAE7A41D19F1010935
:104F2000CCE7BDE8F1832DE9F84F04000D00160031
:104F30009B460A9F5FF000085FFA8BFB08209BFBF3
:104F4000F0F100FB11B0002805D15FFA8BFB0820BF
:104F50009BFBF0FB06E05FFA8BFB08209BFBF0F06D
:104F600010F1010B002082465FFA8AFABAF1070FAE
:104F700019DA5146C9B20020FFF7C7FE002081466A
:104F80005FFA89F9B9F1800F0ADA1FFA88F817F881
:104F90000800FFF76FFE18F1010819F10109EFE7AA
:104FA0001AF1010AE0E7BDE8F18F70B504000020B6
:104FB0000600F6B2082E14DA3100C9B20020FFF75D
:104FC000A4FE00200500EDB2802D08DAEDB204EB5E
:104FD000C500F6B2805DFFF74DFE6D1CF3E7761C51
:104FE000E7E770BD80B51048009040238022002183
:104FF0000020FFF798FF0D4A06213420FFF754FFE9
:105000000B4A07210420FFF74FFF01BD00000000FD
:105010004C08FE435808FE435408FE433C10FE4330
:105020005008FE4360790000CC0CFF1F4C84000048
:105030005082000070B504000D0016004FF480711E
:105040002000C0B200F0C4F86DB2002D11D15E484E
:10505000E4B2611150F821005B49E4B2621151F8E9
:1050600022104969012214F01F039A4091434161C3
:1050700036E05548E4B2611150F821005249E4B2DB
:10508000621151F822104969012214F01F039A405D
:1050900011434161F6B2002E11D14B48E4B26111C7
:1050A00050F821000068012114F01F02914088434C
:1050B0004549E4B2621151F82210086010E04248FC
:1050C000E4B2611150F821000068012114F01F02C0
:1050D000914008433C49E4B2621151F82210086043
:1050E00070BD38B504000D003748E4B2611150F8C6
:1050F0002100406914F01F01C840C00703D4632198
:105100003248FFF7C3FBEDB2002D11D12E48E4B2B7
:10511000611150F821000068012114F01F02914034
:1051200088432949E4B2621151F82210086010E066
:105130002548E4B2611150F821000068012114F003
:105140001F02914008432049E4B2621151F8221035
:10515000086031BD10B504001B48E4B2611150F87D
:105160002100406914F01F01C840C00703D47B210F
:105170001648FFF78BFB1448E4B2611150F8210088
:10518000012114F01F029140C16010BD10B5040050
:105190000D48E4B2611150F82100406914F01F017C
:1051A000C840C00703D58C210848FFF76FFB0648AD
:1051B000E4B2611150F82100006914F01F01C840E9
:1051C00010F0010010BD0000300CFF1F64800000D3
:1051D00010B42B4A13684FF400740200D2B2520983
:1051E00014FA02F21A43264B1A60264AC0B243113F
:1051F00052F82320012310F01F04A340C2F8A0306E
:10520000204AC0B2431152F82320C0B210F01F034D
:1052100042F8231010BC704710B4194A13684FF4B9
:1052200000740200D2B2520914FA02F21A43144B6B
:105230001A60144AC0B2431152F82320012310F01F
:105240001F04A340C2F8A03031F4E0610D4AC0B29F
:10525000431152F82320C0B210F01F0352F823204C
:1052600012F4E0621143074AC0B2431152F82320FE
:10527000C0B210F01F0342F8231010BC70470000AA
:1052800038800440A00CFF1FDFF800F0A111FF1FC1
:1052900010F00702DFF8FC361B6819004FF6FF0319
:1052A0001940DFF8F43653EA02231943DFF8E436F5
:1052B00019607047012110F01F029140DFF8DC26D1
:1052C00040B2430942F82310704710B440B200289E
:1052D00009D50A01DFF8C83640B210F00F042344A4
:1052E00003F8042C04E00A01DFF8B83640B21A547F
:1052F00010BC704780B572B6DFF8AC06FFF748FB0C
:10530000DFF8A806FFF744FBDFF8A406FFF740FB31
:10531000062000F0B3FB012201218920FFF78AFE5D
:10532000B5A0FFF735FBDFF88C06FFF731FBDFF8A0
:105330008806FFF72DFB262000F01CFCAEA0FFF72F
:1053400027FBDFF87806FFF723FB0022012141202D
:10535000FFF770FEA8A0FFF71BFBDFF86406FFF75E
:1053600017FBFFF718FD0020FFF7E7FCFFF73AFEF9
:105370004FF49670FFF7EBF901214120FFF7B1FEE2
:105380004FF4FA70FFF7E3F99BA0FFF701FBDFF89A
:105390003406FFF7FDFADFF83006FFF723FAFFF7D0
:1053A00032FA95A0FFF7F4FADFF82006FFF7F0FADB
:1053B00000F05EFD90A0FFF7EBFADFF81406FFF7B0
:1053C000E7FA00F079FD8CA0FFF7E2FADFF80406B7
:1053D000FFF7DEFA88A0FFF7DBFADFF8FC05FFF73E
:1053E000D7FA00F07DFD84A0FFF7D2FADFF8EC05D4
:1053F000FFF7CEFAFFF748FF00F0DAFE00F088F87A
:105400007DA0FFF7C5FADFF8D805FFF7C1FA7AA04B
:10541000FFF7BEFADFF8CC05FFF7BAFA5FF4E13127
:105420000320FFF7D2FA74A0FFF7B2FADFF8B8054D
:10543000FFF7AEFA0420FFF72BFF03215520FFF7FB
:1054400044FF02214320FFF740FF0FF2C5414320F4
:1054500001F04BF80320FFF7EAFBDFF89005006846
:10546000052101FB00F1002001F056F80FF2911127
:10547000542001F03AF84420FFF71CFFDFF86C05D8
:105480000068502101FB00F1012001F045F80FF206
:105490004D41552001F029F84520FFF70BFF04206E
:1054A000DFF84C1508705720FFF704FF52A0FFF7F4
:1054B0006FFADFF8F804FFF76BFADFF83805FFF74B
:1054C00067FA62B60120DFF8301508600A22012170
:1054D000262000F0ABFC00EE100AB8EE400ADFED2B
:1054E000470A80EE200A10EE100AFFF76DF85FF011
:1054F0006632DFF80835FCF78BFD0022DFF8003557
:10550000FCF786FDFFF788F8DFF8F8140860DDE7A0
:10551000DFF8F4040068DFF8F4140860DFF8E8044A
:105520004068DFF8E8144860DFF8DC048068DFF8E2
:10553000DC140861DFF8D004C068DFF8D0144861DB
:10554000DFF8C4040069DFF8C4140862DFF8B804A7
:105550004069DFF8B8144862DFF8AC048069DFF80E
:10556000AC140865DFF8A004C069DFF8A014486532
:10557000DFF89404006ADFF894140866DFF8880402
:10558000406ADFF888144866DFF87C04806ADFF838
:105590007C140867DFF87004C06ADFF8701448678D
:1055A000DFF86404006BDFF86414C1F8A000DFF8D2
:1055B0005804406BDFF85414C1F8A400DFF8480425
:1055C000806BDFF84814C1F8B000DFF83C04C06B12
:1055D000DFF83814C1F8B400DFF82C04006CDFF8F1
:1055E0002C14C1F8C000DFF82004406CDFF81C1454
:1055F000C1F8C400704700004F4B0A00000080450E
:1056000080B5DFF80C04006801282AD1DFF8040413
:1056100090ED000AF7EE000A30EE200ADFF8F403FE
:1056200080ED000ADFF8EC0390ED000AF3EE040AC7
:10563000B4EE600AF1EE10FA13DBDFF8DC03006869
:10564000FEF7C2FFDFF8D423DFF8D433FDF722F8EA
:10565000FEF7E2FFDFF8C0130860DFF8B8030021AF
:105660000160DFF8C0030068DFF8BC130880DFF8D2
:10567000BC030068DFF8B0134880DFF8A8030068B7
:10568000DFF8AC130860DFF8A4030068DFF8A013AC
:105690004860DFF8A003006801F0BDFADFF86C0392
:1056A000DFF894134968282251430844DFF888132F
:1056B000096800EBC10090ED000AB8EEC00ADFF8FF
:1056C0007C0380ED000ADFF84403DFF86C134968BF
:1056D000282251430844DFF86013096800EBC10039
:1056E00090ED010AB8EEC00ADFF8540380ED000A1D
:1056F000DFF8500300680A2807DADFF8480300687B
:10570000401CDFF84013086014E0DFF82403006851
:10571000DFF834138870DFF818034068DFF82813C7
:10572000C870DFF8241379A0FFF732F90020DFF802
:1057300014130860DFF8C0020068002840F09D8064
:10574000DFF8E402B0F9000000EE100AB8EEC00A7B
:1057500000F0DEFBDFF8F4120860DFF8CC02B0F9ED
:10576000020000EE100AB8EEC00A00F071FCDFF88B
:10577000E0120860DFF8D4020068B0F5966F05DB30
:105780004FF49660DFF8C412086005E0DFF8BC0251
:105790000068DFF8B8120860DFF8B0020068DFF8D0
:1057A000B412884205DADFF8B002DFF8A012086010
:1057B00005E0DFF898020068DFF890120860DFF873
:1057C00090020068B0F5966F05DB4FF49660DFF845
:1057D0008012086005E0DFF878020068DFF87012D8
:1057E0000860DFF86C020068DFF86812884205DAAA
:1057F000DFF86402DFF85812086005E0DFF85002B5
:105800000068DFF84C12086041F25C20DFF84C12AF
:105810000968401ADFF8381209680A1802210320C3
:1058200001F0E9FB41F25C20DFF834120968401A0C
:10583000DFF8181209680A180321032001F0DBFBC6
:1058400041F25C20DFF814120968401ADFF80012F8
:1058500009680A180121032001F0CDFB41F25C2008
:10586000DFF8FC110968401ADFF8E01109680A182E
:105870000021032001F0BFFB27E041F25C20DFF8AC
:10588000DC110968421A0121032001F0B4FB41F246
:105890005C20DFF8CC110968421A0021032001F0D6
:1058A000AAFB41F25C20DFF8B4110968421A022118
:1058B000032001F0A0FB41F25C20DFF8A41109688D
:1058C000421A0321032001F096FBDFF898010068DB
:1058D00050F00100DFF88C11086001BD80B500F0C8
:1058E0001BF9DFF884110870DFF87C010078FEF7FF
:1058F0009DF8FEF7B7F8FEF786FFDFF87001006845
:1059000050F00100DFF86411086001BD257300004C
:1059100080B50320FFF77FF9012808D169460320ED
:10592000FFF75DF99DF80000C0B200F001F801BD7D
:105930004F4991F90010002906D1C0B2FF2827D1A4
:1059400001214B4A117023E04A4991F900100029C6
:1059500006D1C0B2EE281BD10121464A117017E0D2
:10596000454991F90010002906D1C0B22D490860BF
:105970000121414A11700BE0C0B22C49086000219E
:105980003B4A117000213B4A117000213A4A1170C4
:10599000704700000CED00E00000FA0500E100E0B7
:1059A00018ED00E000E400E08C820000C8810000F7
:1059B0002C830000A0820000B48200003C83000021
:1059C0004C8300005C830000DC10FF1F6C83000030
:1059D0007C83000020820000C8820000DC8200007E
:1059E000F08200008C83000038820000D419FF1F71
:1059F0006C11FF1F9C830000C014FF1F66660A40E5
:105A000000000840A414FF1FD814FF1F1004FF1F3C
:105A1000D414FF1FCC14FF1FD014FF1F9A9999991B
:105A20009999B93FA814FF1FA014FF1FAC14FF1FC2
:105A3000B013FF1F0805FF1FC013FF1F6013FF1FD8
:105A40008813FF1F2015FF1F0C05FF1FB814FF1F31
:105A5000BC14FF1F51FBFFFF50FBFFFFC414FF1FCF
:105A6000C814FF1F0C7103402A1AFF1F1C7103404A
:105A70002B1AFF1F2C1AFF1F2D1AFF1F10B5040031
:105A800064B2062C0DDA00220021224864B2005DC7
:105A9000FFF7D0FA03211F4864B2005DFFF7BCFB9B
:105AA00014E0062004002000441E40B200280DD05F
:105AB00000220021174864B2005DFFF7BBFA032102
:105AC000144864B2005DFFF7A7FBECE710BD10B50A
:105AD0000400104864B2005DFFF758FB002801D1B4
:105AE000002000E0012010BD10B50400200040B2ED
:105AF000FFF7EDFF00280AD10A20FEF728FE20005C
:105B000040B2FFF7E4FF002801D1002000E00120AF
:105B100010BD00002011FF1F80B50020FFF7E4FF3B
:105B2000002801D1502023E00120FFF7DDFF0028ED
:105B300001D120201CE00220FFF7D6FF002801D170
:105B4000302015E00320FFF7CFFF002801D11020FF
:105B50000EE00420FFF7C8FF002801D1402007E035
:105B60000520FFF7C1FF002801D1602000E00020E0
:105B700002BD000038B5040064B26511EDB2002D1D
:105B800002D0012D11D021E0A348006850F0006040
:105B9000A1490860A148006830F090009F49086062
:105BA0009E4800689D49086014E09D48006850F0D8
:105BB00000609B4908609948006830F4104097499C
:105BC0000860964800689549086003E033219548CD
:105BD000FEF75CFE64B22000002800F089800128F6
:105BE00000F08680032800F0838008284ED0092822
:105BF00051D00A2854D00B2857D00C285AD00D2841
:105C00005DD00E2860D00F2863D0102870D01128E6
:105C100064D0122867D013286AD0142868D01A28B4
:105C200066D01D2864D01E2862D0202861D021288B
:105C30005FD023285DD024285CD025285FD026287B
:105C400062D0272865D0282868D029286BD02A2838
:105C50006ED02B2871D02C2874D02D2877D02E28E8
:105C60007AD02F287DD0302800F0858031287DD053
:105C7000322800F0808033287DD034287BD03A2829
:105C800079D03D2877D03E2875D075E000212020BE
:105C9000FFF79EFA74E000212120FFF799FA6FE0E8
:105CA00000210720FFF794FA6AE000210820FFF79F
:105CB0008FFA65E000212220FFF78AFA60E00021D8
:105CC0002320FFF785FA5BE000214020FFF780FAF0
:105CD00056E000214120FFF77BFA51E00021982097
:105CE000FFF776FA4CE000219920FFF771FA47E0C0
:105CF00046E045E000218020FFF76AFA40E00021FD
:105D00008120FFF765FA3BE000218220FFF760FA6F
:105D100036E000218320FFF75BFA31E000212020EC
:105D2000FFF756FA2CE000212120FFF751FA27E077
:105D300000212420FFF74CFA22E000212520FFF764
:105D400047FA1DE000212620FFF742FA18E0002163
:105D50002720FFF73DFA13E000212A20FFF738FA49
:105D60000EE000212B20FFF733FA09E0002111207B
:105D7000FFF72EFA04E003E09A212A48FEF786FD99
:105D800031BDF8B504000D0064B26611002729008A
:105D900049B2200040B200F01CF8234876B250F817
:105DA000260000680006F8D51F4876B250F8260095
:105DB000006907001C4876B250F82600006830F0F1
:105DC0008000194976B251F826100860380080B278
:105DD000F2BD30B440B2421110F01F0349B28C0042
:105DE00014F00C0454F050040F4D52B255F82250E8
:105DF000AC6004240C4D52B255F82250EC60DBB27A
:105E000013F01F0454F04004074D52B255F82250CD
:105E10002C6030BC704700003C8004401880044077
:105E200030800440D47F00001005FF1F2DE9F041B1
:105E300004000D0016000027002080464046310077
:105E4000C0B2C9B288420BD2290049B2200040B288
:105E5000FFF797FF17FA80F0070018F10108EDE748
:105E6000F6B2B7FBF6F7380080B2BDE8F08100006B
:105E700080B500234FF4A5720021032000F0E2FF5B
:105E800000234FF4A5720121032000F0DBFF002363
